{
  "_format": "hh-sol-artifact-1",
  "contractName": "BioNFT2",
  "sourceName": "contracts/BioNFT2.sol",
  "abi": [
    {
      "inputs": [],
      "stateMutability": "payable",
      "type": "constructor"
    },
    {
      "anonymous": false,
      "inputs": [
        {
          "indexed": true,
          "internalType": "address",
          "name": "owner",
          "type": "address"
        },
        {
          "indexed": true,
          "internalType": "address",
          "name": "approved",
          "type": "address"
        },
        {
          "indexed": true,
          "internalType": "uint256",
          "name": "tokenId",
          "type": "uint256"
        }
      ],
      "name": "Approval",
      "type": "event"
    },
    {
      "anonymous": false,
      "inputs": [
        {
          "indexed": true,
          "internalType": "address",
          "name": "owner",
          "type": "address"
        },
        {
          "indexed": true,
          "internalType": "address",
          "name": "operator",
          "type": "address"
        },
        {
          "indexed": false,
          "internalType": "bool",
          "name": "approved",
          "type": "bool"
        }
      ],
      "name": "ApprovalForAll",
      "type": "event"
    },
    {
      "anonymous": false,
      "inputs": [
        {
          "indexed": true,
          "internalType": "address",
          "name": "previousOwner",
          "type": "address"
        },
        {
          "indexed": true,
          "internalType": "address",
          "name": "newOwner",
          "type": "address"
        }
      ],
      "name": "OwnershipTransferred",
      "type": "event"
    },
    {
      "anonymous": false,
      "inputs": [
        {
          "indexed": true,
          "internalType": "address",
          "name": "from",
          "type": "address"
        },
        {
          "indexed": true,
          "internalType": "address",
          "name": "to",
          "type": "address"
        },
        {
          "indexed": true,
          "internalType": "uint256",
          "name": "tokenId",
          "type": "uint256"
        }
      ],
      "name": "Transfer",
      "type": "event"
    },
    {
      "inputs": [
        {
          "internalType": "address",
          "name": "to",
          "type": "address"
        },
        {
          "internalType": "uint256",
          "name": "tokenId",
          "type": "uint256"
        }
      ],
      "name": "approve",
      "outputs": [],
      "stateMutability": "nonpayable",
      "type": "function"
    },
    {
      "inputs": [
        {
          "internalType": "address",
          "name": "owner",
          "type": "address"
        }
      ],
      "name": "balanceOf",
      "outputs": [
        {
          "internalType": "uint256",
          "name": "",
          "type": "uint256"
        }
      ],
      "stateMutability": "view",
      "type": "function"
    },
    {
      "inputs": [
        {
          "internalType": "string",
          "name": "tokenURI",
          "type": "string"
        }
      ],
      "name": "claimItem",
      "outputs": [
        {
          "internalType": "uint256",
          "name": "",
          "type": "uint256"
        }
      ],
      "stateMutability": "payable",
      "type": "function"
    },
    {
      "inputs": [
        {
          "internalType": "uint256",
          "name": "tokenId",
          "type": "uint256"
        }
      ],
      "name": "getApproved",
      "outputs": [
        {
          "internalType": "address",
          "name": "",
          "type": "address"
        }
      ],
      "stateMutability": "view",
      "type": "function"
    },
    {
      "inputs": [
        {
          "internalType": "address",
          "name": "owner",
          "type": "address"
        },
        {
          "internalType": "address",
          "name": "operator",
          "type": "address"
        }
      ],
      "name": "isApprovedForAll",
      "outputs": [
        {
          "internalType": "bool",
          "name": "",
          "type": "bool"
        }
      ],
      "stateMutability": "view",
      "type": "function"
    },
    {
      "inputs": [],
      "name": "mintPrice",
      "outputs": [
        {
          "internalType": "uint256",
          "name": "",
          "type": "uint256"
        }
      ],
      "stateMutability": "view",
      "type": "function"
    },
    {
      "inputs": [],
      "name": "name",
      "outputs": [
        {
          "internalType": "string",
          "name": "",
          "type": "string"
        }
      ],
      "stateMutability": "view",
      "type": "function"
    },
    {
      "inputs": [],
      "name": "owner",
      "outputs": [
        {
          "internalType": "address",
          "name": "",
          "type": "address"
        }
      ],
      "stateMutability": "view",
      "type": "function"
    },
    {
      "inputs": [
        {
          "internalType": "uint256",
          "name": "tokenId",
          "type": "uint256"
        }
      ],
      "name": "ownerOf",
      "outputs": [
        {
          "internalType": "address",
          "name": "",
          "type": "address"
        }
      ],
      "stateMutability": "view",
      "type": "function"
    },
    {
      "inputs": [],
      "name": "renounceOwnership",
      "outputs": [],
      "stateMutability": "nonpayable",
      "type": "function"
    },
    {
      "inputs": [
        {
          "internalType": "address",
          "name": "from",
          "type": "address"
        },
        {
          "internalType": "address",
          "name": "to",
          "type": "address"
        },
        {
          "internalType": "uint256",
          "name": "tokenId",
          "type": "uint256"
        }
      ],
      "name": "safeTransferFrom",
      "outputs": [],
      "stateMutability": "nonpayable",
      "type": "function"
    },
    {
      "inputs": [
        {
          "internalType": "address",
          "name": "from",
          "type": "address"
        },
        {
          "internalType": "address",
          "name": "to",
          "type": "address"
        },
        {
          "internalType": "uint256",
          "name": "tokenId",
          "type": "uint256"
        },
        {
          "internalType": "bytes",
          "name": "_data",
          "type": "bytes"
        }
      ],
      "name": "safeTransferFrom",
      "outputs": [],
      "stateMutability": "nonpayable",
      "type": "function"
    },
    {
      "inputs": [
        {
          "internalType": "address",
          "name": "operator",
          "type": "address"
        },
        {
          "internalType": "bool",
          "name": "approved",
          "type": "bool"
        }
      ],
      "name": "setApprovalForAll",
      "outputs": [],
      "stateMutability": "nonpayable",
      "type": "function"
    },
    {
      "inputs": [
        {
          "internalType": "string",
          "name": "baseURI_",
          "type": "string"
        }
      ],
      "name": "setBaseURI",
      "outputs": [],
      "stateMutability": "nonpayable",
      "type": "function"
    },
    {
      "inputs": [
        {
          "internalType": "bytes4",
          "name": "interfaceId",
          "type": "bytes4"
        }
      ],
      "name": "supportsInterface",
      "outputs": [
        {
          "internalType": "bool",
          "name": "",
          "type": "bool"
        }
      ],
      "stateMutability": "view",
      "type": "function"
    },
    {
      "inputs": [],
      "name": "symbol",
      "outputs": [
        {
          "internalType": "string",
          "name": "",
          "type": "string"
        }
      ],
      "stateMutability": "view",
      "type": "function"
    },
    {
      "inputs": [
        {
          "internalType": "uint256",
          "name": "tokenId",
          "type": "uint256"
        }
      ],
      "name": "tokenURI",
      "outputs": [
        {
          "internalType": "string",
          "name": "",
          "type": "string"
        }
      ],
      "stateMutability": "view",
      "type": "function"
    },
    {
      "inputs": [],
      "name": "totalSupply",
      "outputs": [
        {
          "internalType": "uint256",
          "name": "",
          "type": "uint256"
        }
      ],
      "stateMutability": "view",
      "type": "function"
    },
    {
      "inputs": [
        {
          "internalType": "address",
          "name": "from",
          "type": "address"
        },
        {
          "internalType": "address",
          "name": "to",
          "type": "address"
        },
        {
          "internalType": "uint256",
          "name": "tokenId",
          "type": "uint256"
        }
      ],
      "name": "transferFrom",
      "outputs": [],
      "stateMutability": "nonpayable",
      "type": "function"
    },
    {
      "inputs": [
        {
          "internalType": "address",
          "name": "newOwner",
          "type": "address"
        }
      ],
      "name": "transferOwnership",
      "outputs": [],
      "stateMutability": "nonpayable",
      "type": "function"
    }
  ],
  "bytecode": "0x60806040526040518060400160405280600f81526020017f42696f436f6c6c65637469626c657300000000000000000000000000000000008152506040518060400160405280600481526020017f42494f43000000000000000000000000000000000000000000000000000000008152506200009062000084620000d860201b60201c565b620000e060201b60201c565b8160019080519060200190620000a8929190620001a4565b508060029080519060200190620000c1929190620001a4565b505050662386f26fc10000600781905550620002b9565b600033905090565b60008060009054906101000a900473ffffffffffffffffffffffffffffffffffffffff169050816000806101000a81548173ffffffffffffffffffffffffffffffffffffffff021916908373ffffffffffffffffffffffffffffffffffffffff1602179055508173ffffffffffffffffffffffffffffffffffffffff168173ffffffffffffffffffffffffffffffffffffffff167f8be0079c531659141344cd1fd0a4f28419497f9722a3daafe3b4186f6b6457e060405160405180910390a35050565b828054620001b29062000254565b90600052602060002090601f016020900481019282620001d6576000855562000222565b82601f10620001f157805160ff191683800117855562000222565b8280016001018555821562000222579182015b828111156200022157825182559160200191906001019062000204565b5b50905062000231919062000235565b5090565b5b808211156200025057600081600090555060010162000236565b5090565b600060028204905060018216806200026d57607f821691505b602082108114156200028457620002836200028a565b5b50919050565b7f4e487b7100000000000000000000000000000000000000000000000000000000600052602260045260246000fd5b6130c980620002c96000396000f3fe60806040526004361061011f5760003560e01c806370a08231116100a0578063a850e8bd11610064578063a850e8bd146103d3578063b88d4fde14610403578063c87b56dd1461042c578063e985e9c514610469578063f2fde38b146104a65761011f565b806370a0823114610300578063715018a61461033d5780638da5cb5b1461035457806395d89b411461037f578063a22cb465146103aa5761011f565b806323b872dd116100e757806323b872dd1461021d57806342842e0e1461024657806355f804b31461026f5780636352211e146102985780636817c76c146102d55761011f565b806301ffc9a71461012457806306fdde0314610161578063081812fc1461018c578063095ea7b3146101c957806318160ddd146101f2575b600080fd5b34801561013057600080fd5b5061014b600480360381019061014691906120c9565b6104cf565b6040516101589190612533565b60405180910390f35b34801561016d57600080fd5b506101766105b1565b604051610183919061254e565b60405180910390f35b34801561019857600080fd5b506101b360048036038101906101ae919061215c565b610643565b6040516101c091906124cc565b60405180910390f35b3480156101d557600080fd5b506101f060048036038101906101eb919061208d565b6106c8565b005b3480156101fe57600080fd5b506102076107e0565b6040516102149190612790565b60405180910390f35b34801561022957600080fd5b50610244600480360381019061023f9190611f87565b6107f1565b005b34801561025257600080fd5b5061026d60048036038101906102689190611f87565b610851565b005b34801561027b57600080fd5b506102966004803603810190610291919061211b565b610871565b005b3480156102a457600080fd5b506102bf60048036038101906102ba919061215c565b610907565b6040516102cc91906124cc565b60405180910390f35b3480156102e157600080fd5b506102ea6109b9565b6040516102f79190612790565b60405180910390f35b34801561030c57600080fd5b5061032760048036038101906103229190611f22565b6109bf565b6040516103349190612790565b60405180910390f35b34801561034957600080fd5b50610352610a77565b005b34801561036057600080fd5b50610369610aff565b60405161037691906124cc565b60405180910390f35b34801561038b57600080fd5b50610394610b28565b6040516103a1919061254e565b60405180910390f35b3480156103b657600080fd5b506103d160048036038101906103cc9190612051565b610bba565b005b6103ed60048036038101906103e8919061211b565b610bd0565b6040516103fa9190612790565b60405180910390f35b34801561040f57600080fd5b5061042a60048036038101906104259190611fd6565b610c07565b005b34801561043857600080fd5b50610453600480360381019061044e919061215c565b610c69565b604051610460919061254e565b60405180910390f35b34801561047557600080fd5b50610490600480360381019061048b9190611f4b565b610ddc565b60405161049d9190612533565b60405180910390f35b3480156104b257600080fd5b506104cd60048036038101906104c89190611f22565b610e70565b005b60007f80ac58cd000000000000000000000000000000000000000000000000000000007bffffffffffffffffffffffffffffffffffffffffffffffffffffffff1916827bffffffffffffffffffffffffffffffffffffffffffffffffffffffff1916148061059a57507f5b5e139f000000000000000000000000000000000000000000000000000000007bffffffffffffffffffffffffffffffffffffffffffffffffffffffff1916827bffffffffffffffffffffffffffffffffffffffffffffffffffffffff1916145b806105aa57506105a982610f68565b5b9050919050565b6060600180546105c0906129e6565b80601f01602080910402602001604051908101604052809291908181526020018280546105ec906129e6565b80156106395780601f1061060e57610100808354040283529160200191610639565b820191906000526020600020905b81548152906001019060200180831161061c57829003601f168201915b5050505050905090565b600061064e82610fd2565b61068d576040517f08c379a0000000000000000000000000000000000000000000000000000000008152600401610684906126d0565b60405180910390fd5b6005600083815260200190815260200160002060009054906101000a900473ffffffffffffffffffffffffffffffffffffffff169050919050565b60006106d382610907565b90508073ffffffffffffffffffffffffffffffffffffffff168373ffffffffffffffffffffffffffffffffffffffff161415610744576040517f08c379a000000000000000000000000000000000000000000000000000000000815260040161073b90612750565b60405180910390fd5b8073ffffffffffffffffffffffffffffffffffffffff1661076361103e565b73ffffffffffffffffffffffffffffffffffffffff16148061079257506107918161078c61103e565b610ddc565b5b6107d1576040517f08c379a00000000000000000000000000000000000000000000000000000000081526004016107c890612650565b60405180910390fd5b6107db8383611046565b505050565b60006107ec60086110ff565b905090565b6108026107fc61103e565b8261110d565b610841576040517f08c379a000000000000000000000000000000000000000000000000000000000815260040161083890612770565b60405180910390fd5b61084c8383836111eb565b505050565b61086c83838360405180602001604052806000815250610c07565b505050565b61087961103e565b73ffffffffffffffffffffffffffffffffffffffff16610897610aff565b73ffffffffffffffffffffffffffffffffffffffff16146108ed576040517f08c379a00000000000000000000000000000000000000000000000000000000081526004016108e490612710565b60405180910390fd5b80600a9080519060200190610903929190611d46565b5050565b6000806003600084815260200190815260200160002060009054906101000a900473ffffffffffffffffffffffffffffffffffffffff169050600073ffffffffffffffffffffffffffffffffffffffff168173ffffffffffffffffffffffffffffffffffffffff1614156109b0576040517f08c379a00000000000000000000000000000000000000000000000000000000081526004016109a790612690565b60405180910390fd5b80915050919050565b60075481565b60008073ffffffffffffffffffffffffffffffffffffffff168273ffffffffffffffffffffffffffffffffffffffff161415610a30576040517f08c379a0000000000000000000000000000000000000000000000000000000008152600401610a2790612670565b60405180910390fd5b600460008373ffffffffffffffffffffffffffffffffffffffff1673ffffffffffffffffffffffffffffffffffffffff168152602001908152602001600020549050919050565b610a7f61103e565b73ffffffffffffffffffffffffffffffffffffffff16610a9d610aff565b73ffffffffffffffffffffffffffffffffffffffff1614610af3576040517f08c379a0000000000000000000000000000000000000000000000000000000008152600401610aea90612710565b60405180910390fd5b610afd6000611452565b565b60008060009054906101000a900473ffffffffffffffffffffffffffffffffffffffff16905090565b606060028054610b37906129e6565b80601f0160208091040260200160405190810160405280929190818152602001828054610b63906129e6565b8015610bb05780601f10610b8557610100808354040283529160200191610bb0565b820191906000526020600020905b815481529060010190602001808311610b9357829003601f168201915b5050505050905090565b610bcc610bc561103e565b8383611516565b5050565b6000610bdc6008611683565b6000610be860086110ff565b9050610bf43382611699565b610bfe8184611873565b80915050919050565b610c18610c1261103e565b8361110d565b610c57576040517f08c379a0000000000000000000000000000000000000000000000000000000008152600401610c4e90612770565b60405180910390fd5b610c63848484846118e7565b50505050565b6060610c7482610fd2565b610cb3576040517f08c379a0000000000000000000000000000000000000000000000000000000008152600401610caa90612730565b60405180910390fd5b6000600960008481526020019081526020016000208054610cd3906129e6565b80601f0160208091040260200160405190810160405280929190818152602001828054610cff906129e6565b8015610d4c5780601f10610d2157610100808354040283529160200191610d4c565b820191906000526020600020905b815481529060010190602001808311610d2f57829003601f168201915b505050505090506000610d5d611943565b9050600081511415610d73578192505050610dd7565b600082511115610da8578082604051602001610d909291906124a8565b60405160208183030381529060405292505050610dd7565b80610db2856119d5565b604051602001610dc39291906124a8565b604051602081830303815290604052925050505b919050565b6000600660008473ffffffffffffffffffffffffffffffffffffffff1673ffffffffffffffffffffffffffffffffffffffff16815260200190815260200160002060008373ffffffffffffffffffffffffffffffffffffffff1673ffffffffffffffffffffffffffffffffffffffff16815260200190815260200160002060009054906101000a900460ff16905092915050565b610e7861103e565b73ffffffffffffffffffffffffffffffffffffffff16610e96610aff565b73ffffffffffffffffffffffffffffffffffffffff1614610eec576040517f08c379a0000000000000000000000000000000000000000000000000000000008152600401610ee390612710565b60405180910390fd5b600073ffffffffffffffffffffffffffffffffffffffff168173ffffffffffffffffffffffffffffffffffffffff161415610f5c576040517f08c379a0000000000000000000000000000000000000000000000000000000008152600401610f5390612590565b60405180910390fd5b610f6581611452565b50565b60007f01ffc9a7000000000000000000000000000000000000000000000000000000007bffffffffffffffffffffffffffffffffffffffffffffffffffffffff1916827bffffffffffffffffffffffffffffffffffffffffffffffffffffffff1916149050919050565b60008073ffffffffffffffffffffffffffffffffffffffff166003600084815260200190815260200160002060009054906101000a900473ffffffffffffffffffffffffffffffffffffffff1673ffffffffffffffffffffffffffffffffffffffff1614159050919050565b600033905090565b816005600083815260200190815260200160002060006101000a81548173ffffffffffffffffffffffffffffffffffffffff021916908373ffffffffffffffffffffffffffffffffffffffff160217905550808273ffffffffffffffffffffffffffffffffffffffff166110b983610907565b73ffffffffffffffffffffffffffffffffffffffff167f8c5be1e5ebec7d5bd14f71427d1e84f3dd0314c0f7b2291e5b200ac8c7c3b92560405160405180910390a45050565b600081600001549050919050565b600061111882610fd2565b611157576040517f08c379a000000000000000000000000000000000000000000000000000000000815260040161114e90612630565b60405180910390fd5b600061116283610907565b90508073ffffffffffffffffffffffffffffffffffffffff168473ffffffffffffffffffffffffffffffffffffffff1614806111d157508373ffffffffffffffffffffffffffffffffffffffff166111b984610643565b73ffffffffffffffffffffffffffffffffffffffff16145b806111e257506111e18185610ddc565b5b91505092915050565b8273ffffffffffffffffffffffffffffffffffffffff1661120b82610907565b73ffffffffffffffffffffffffffffffffffffffff1614611261576040517f08c379a0000000000000000000000000000000000000000000000000000000008152600401611258906125b0565b60405180910390fd5b600073ffffffffffffffffffffffffffffffffffffffff168273ffffffffffffffffffffffffffffffffffffffff1614156112d1576040517f08c379a00000000000000000000000000000000000000000000000000000000081526004016112c8906125f0565b60405180910390fd5b6112dc838383611b82565b6112e7600082611046565b6001600460008573ffffffffffffffffffffffffffffffffffffffff1673ffffffffffffffffffffffffffffffffffffffff168152602001908152602001600020600082825461133791906128fc565b925050819055506001600460008473ffffffffffffffffffffffffffffffffffffffff1673ffffffffffffffffffffffffffffffffffffffff168152602001908152602001600020600082825461138e9190612875565b92505081905550816003600083815260200190815260200160002060006101000a81548173ffffffffffffffffffffffffffffffffffffffff021916908373ffffffffffffffffffffffffffffffffffffffff160217905550808273ffffffffffffffffffffffffffffffffffffffff168473ffffffffffffffffffffffffffffffffffffffff167fddf252ad1be2c89b69c2b068fc378daa952ba7f163c4a11628f55a4df523b3ef60405160405180910390a461144d838383611b87565b505050565b60008060009054906101000a900473ffffffffffffffffffffffffffffffffffffffff169050816000806101000a81548173ffffffffffffffffffffffffffffffffffffffff021916908373ffffffffffffffffffffffffffffffffffffffff1602179055508173ffffffffffffffffffffffffffffffffffffffff168173ffffffffffffffffffffffffffffffffffffffff167f8be0079c531659141344cd1fd0a4f28419497f9722a3daafe3b4186f6b6457e060405160405180910390a35050565b8173ffffffffffffffffffffffffffffffffffffffff168373ffffffffffffffffffffffffffffffffffffffff161415611585576040517f08c379a000000000000000000000000000000000000000000000000000000000815260040161157c90612610565b60405180910390fd5b80600660008573ffffffffffffffffffffffffffffffffffffffff1673ffffffffffffffffffffffffffffffffffffffff16815260200190815260200160002060008473ffffffffffffffffffffffffffffffffffffffff1673ffffffffffffffffffffffffffffffffffffffff16815260200190815260200160002060006101000a81548160ff0219169083151502179055508173ffffffffffffffffffffffffffffffffffffffff168373ffffffffffffffffffffffffffffffffffffffff167f17307eab39ab6107e8899845ad3d59bd9653f200f220920489ca2b5937696c31836040516116769190612533565b60405180910390a3505050565b6001816000016000828254019250508190555050565b600073ffffffffffffffffffffffffffffffffffffffff168273ffffffffffffffffffffffffffffffffffffffff161415611709576040517f08c379a0000000000000000000000000000000000000000000000000000000008152600401611700906126b0565b60405180910390fd5b61171281610fd2565b15611752576040517f08c379a0000000000000000000000000000000000000000000000000000000008152600401611749906125d0565b60405180910390fd5b61175e60008383611b82565b6001600460008473ffffffffffffffffffffffffffffffffffffffff1673ffffffffffffffffffffffffffffffffffffffff16815260200190815260200160002060008282546117ae9190612875565b92505081905550816003600083815260200190815260200160002060006101000a81548173ffffffffffffffffffffffffffffffffffffffff021916908373ffffffffffffffffffffffffffffffffffffffff160217905550808273ffffffffffffffffffffffffffffffffffffffff16600073ffffffffffffffffffffffffffffffffffffffff167fddf252ad1be2c89b69c2b068fc378daa952ba7f163c4a11628f55a4df523b3ef60405160405180910390a461186f60008383611b87565b5050565b61187c82610fd2565b6118bb576040517f08c379a00000000000000000000000000000000000000000000000000000000081526004016118b2906126f0565b60405180910390fd5b806009600084815260200190815260200160002090805190602001906118e2929190611d46565b505050565b6118f28484846111eb565b6118fe84848484611b8c565b61193d576040517f08c379a000000000000000000000000000000000000000000000000000000000815260040161193490612570565b60405180910390fd5b50505050565b6060600a8054611952906129e6565b80601f016020809104026020016040519081016040528092919081815260200182805461197e906129e6565b80156119cb5780601f106119a0576101008083540402835291602001916119cb565b820191906000526020600020905b8154815290600101906020018083116119ae57829003601f168201915b5050505050905090565b60606000821415611a1d576040518060400160405280600181526020017f30000000000000000000000000000000000000000000000000000000000000008152509050611b7d565b600082905060005b60008214611a4f578080611a3890612a49565b915050600a82611a4891906128cb565b9150611a25565b60008167ffffffffffffffff811115611a91577f4e487b7100000000000000000000000000000000000000000000000000000000600052604160045260246000fd5b6040519080825280601f01601f191660200182016040528015611ac35781602001600182028036833780820191505090505b5090505b60008514611b7657600182611adc91906128fc565b9150600a85611aeb9190612a92565b6030611af79190612875565b60f81b818381518110611b33577f4e487b7100000000000000000000000000000000000000000000000000000000600052603260045260246000fd5b60200101907effffffffffffffffffffffffffffffffffffffffffffffffffffffffffffff1916908160001a905350600a85611b6f91906128cb565b9450611ac7565b8093505050505b919050565b505050565b505050565b6000611bad8473ffffffffffffffffffffffffffffffffffffffff16611d23565b15611d16578373ffffffffffffffffffffffffffffffffffffffff1663150b7a02611bd661103e565b8786866040518563ffffffff1660e01b8152600401611bf894939291906124e7565b602060405180830381600087803b158015611c1257600080fd5b505af1925050508015611c4357506040513d601f19601f82011682018060405250810190611c4091906120f2565b60015b611cc6573d8060008114611c73576040519150601f19603f3d011682016040523d82523d6000602084013e611c78565b606091505b50600081511415611cbe576040517f08c379a0000000000000000000000000000000000000000000000000000000008152600401611cb590612570565b60405180910390fd5b805181602001fd5b63150b7a0260e01b7bffffffffffffffffffffffffffffffffffffffffffffffffffffffff1916817bffffffffffffffffffffffffffffffffffffffffffffffffffffffff191614915050611d1b565b600190505b949350505050565b6000808273ffffffffffffffffffffffffffffffffffffffff163b119050919050565b828054611d52906129e6565b90600052602060002090601f016020900481019282611d745760008555611dbb565b82601f10611d8d57805160ff1916838001178555611dbb565b82800160010185558215611dbb579182015b82811115611dba578251825591602001919060010190611d9f565b5b509050611dc89190611dcc565b5090565b5b80821115611de5576000816000905550600101611dcd565b5090565b6000611dfc611df7846127d0565b6127ab565b905082815260208101848484011115611e1457600080fd5b611e1f8482856129a4565b509392505050565b6000611e3a611e3584612801565b6127ab565b905082815260208101848484011115611e5257600080fd5b611e5d8482856129a4565b509392505050565b600081359050611e7481613037565b92915050565b600081359050611e898161304e565b92915050565b600081359050611e9e81613065565b92915050565b600081519050611eb381613065565b92915050565b600082601f830112611eca57600080fd5b8135611eda848260208601611de9565b91505092915050565b600082601f830112611ef457600080fd5b8135611f04848260208601611e27565b91505092915050565b600081359050611f1c8161307c565b92915050565b600060208284031215611f3457600080fd5b6000611f4284828501611e65565b91505092915050565b60008060408385031215611f5e57600080fd5b6000611f6c85828601611e65565b9250506020611f7d85828601611e65565b9150509250929050565b600080600060608486031215611f9c57600080fd5b6000611faa86828701611e65565b9350506020611fbb86828701611e65565b9250506040611fcc86828701611f0d565b9150509250925092565b60008060008060808587031215611fec57600080fd5b6000611ffa87828801611e65565b945050602061200b87828801611e65565b935050604061201c87828801611f0d565b925050606085013567ffffffffffffffff81111561203957600080fd5b61204587828801611eb9565b91505092959194509250565b6000806040838503121561206457600080fd5b600061207285828601611e65565b925050602061208385828601611e7a565b9150509250929050565b600080604083850312156120a057600080fd5b60006120ae85828601611e65565b92505060206120bf85828601611f0d565b9150509250929050565b6000602082840312156120db57600080fd5b60006120e984828501611e8f565b91505092915050565b60006020828403121561210457600080fd5b600061211284828501611ea4565b91505092915050565b60006020828403121561212d57600080fd5b600082013567ffffffffffffffff81111561214757600080fd5b61215384828501611ee3565b91505092915050565b60006020828403121561216e57600080fd5b600061217c84828501611f0d565b91505092915050565b61218e81612930565b82525050565b61219d81612942565b82525050565b60006121ae82612832565b6121b88185612848565b93506121c88185602086016129b3565b6121d181612b7f565b840191505092915050565b60006121e78261283d565b6121f18185612859565b93506122018185602086016129b3565b61220a81612b7f565b840191505092915050565b60006122208261283d565b61222a818561286a565b935061223a8185602086016129b3565b80840191505092915050565b6000612253603283612859565b915061225e82612b90565b604082019050919050565b6000612276602683612859565b915061228182612bdf565b604082019050919050565b6000612299602583612859565b91506122a482612c2e565b604082019050919050565b60006122bc601c83612859565b91506122c782612c7d565b602082019050919050565b60006122df602483612859565b91506122ea82612ca6565b604082019050919050565b6000612302601983612859565b915061230d82612cf5565b602082019050919050565b6000612325602c83612859565b915061233082612d1e565b604082019050919050565b6000612348603883612859565b915061235382612d6d565b604082019050919050565b600061236b602a83612859565b915061237682612dbc565b604082019050919050565b600061238e602983612859565b915061239982612e0b565b604082019050919050565b60006123b1602083612859565b91506123bc82612e5a565b602082019050919050565b60006123d4602c83612859565b91506123df82612e83565b604082019050919050565b60006123f7602c83612859565b915061240282612ed2565b604082019050919050565b600061241a602083612859565b915061242582612f21565b602082019050919050565b600061243d602f83612859565b915061244882612f4a565b604082019050919050565b6000612460602183612859565b915061246b82612f99565b604082019050919050565b6000612483603183612859565b915061248e82612fe8565b604082019050919050565b6124a28161299a565b82525050565b60006124b48285612215565b91506124c08284612215565b91508190509392505050565b60006020820190506124e16000830184612185565b92915050565b60006080820190506124fc6000830187612185565b6125096020830186612185565b6125166040830185612499565b818103606083015261252881846121a3565b905095945050505050565b60006020820190506125486000830184612194565b92915050565b6000602082019050818103600083015261256881846121dc565b905092915050565b6000602082019050818103600083015261258981612246565b9050919050565b600060208201905081810360008301526125a981612269565b9050919050565b600060208201905081810360008301526125c98161228c565b9050919050565b600060208201905081810360008301526125e9816122af565b9050919050565b60006020820190508181036000830152612609816122d2565b9050919050565b60006020820190508181036000830152612629816122f5565b9050919050565b6000602082019050818103600083015261264981612318565b9050919050565b600060208201905081810360008301526126698161233b565b9050919050565b600060208201905081810360008301526126898161235e565b9050919050565b600060208201905081810360008301526126a981612381565b9050919050565b600060208201905081810360008301526126c9816123a4565b9050919050565b600060208201905081810360008301526126e9816123c7565b9050919050565b60006020820190508181036000830152612709816123ea565b9050919050565b600060208201905081810360008301526127298161240d565b9050919050565b6000602082019050818103600083015261274981612430565b9050919050565b6000602082019050818103600083015261276981612453565b9050919050565b6000602082019050818103600083015261278981612476565b9050919050565b60006020820190506127a56000830184612499565b92915050565b60006127b56127c6565b90506127c18282612a18565b919050565b6000604051905090565b600067ffffffffffffffff8211156127eb576127ea612b50565b5b6127f482612b7f565b9050602081019050919050565b600067ffffffffffffffff82111561281c5761281b612b50565b5b61282582612b7f565b9050602081019050919050565b600081519050919050565b600081519050919050565b600082825260208201905092915050565b600082825260208201905092915050565b600081905092915050565b60006128808261299a565b915061288b8361299a565b9250827fffffffffffffffffffffffffffffffffffffffffffffffffffffffffffffffff038211156128c0576128bf612ac3565b5b828201905092915050565b60006128d68261299a565b91506128e18361299a565b9250826128f1576128f0612af2565b5b828204905092915050565b60006129078261299a565b91506129128361299a565b92508282101561292557612924612ac3565b5b828203905092915050565b600061293b8261297a565b9050919050565b60008115159050919050565b60007fffffffff0000000000000000000000000000000000000000000000000000000082169050919050565b600073ffffffffffffffffffffffffffffffffffffffff82169050919050565b6000819050919050565b82818337600083830152505050565b60005b838110156129d15780820151818401526020810190506129b6565b838111156129e0576000848401525b50505050565b600060028204905060018216806129fe57607f821691505b60208210811415612a1257612a11612b21565b5b50919050565b612a2182612b7f565b810181811067ffffffffffffffff82111715612a4057612a3f612b50565b5b80604052505050565b6000612a548261299a565b91507fffffffffffffffffffffffffffffffffffffffffffffffffffffffffffffffff821415612a8757612a86612ac3565b5b600182019050919050565b6000612a9d8261299a565b9150612aa88361299a565b925082612ab857612ab7612af2565b5b828206905092915050565b7f4e487b7100000000000000000000000000000000000000000000000000000000600052601160045260246000fd5b7f4e487b7100000000000000000000000000000000000000000000000000000000600052601260045260246000fd5b7f4e487b7100000000000000000000000000000000000000000000000000000000600052602260045260246000fd5b7f4e487b7100000000000000000000000000000000000000000000000000000000600052604160045260246000fd5b6000601f19601f8301169050919050565b7f4552433732313a207472616e7366657220746f206e6f6e20455243373231526560008201527f63656976657220696d706c656d656e7465720000000000000000000000000000602082015250565b7f4f776e61626c653a206e6577206f776e657220697320746865207a65726f206160008201527f6464726573730000000000000000000000000000000000000000000000000000602082015250565b7f4552433732313a207472616e736665722066726f6d20696e636f72726563742060008201527f6f776e6572000000000000000000000000000000000000000000000000000000602082015250565b7f4552433732313a20746f6b656e20616c7265616479206d696e74656400000000600082015250565b7f4552433732313a207472616e7366657220746f20746865207a65726f2061646460008201527f7265737300000000000000000000000000000000000000000000000000000000602082015250565b7f4552433732313a20617070726f766520746f2063616c6c657200000000000000600082015250565b7f4552433732313a206f70657261746f7220717565727920666f72206e6f6e657860008201527f697374656e7420746f6b656e0000000000000000000000000000000000000000602082015250565b7f4552433732313a20617070726f76652063616c6c6572206973206e6f74206f7760008201527f6e6572206e6f7220617070726f76656420666f7220616c6c0000000000000000602082015250565b7f4552433732313a2062616c616e636520717565727920666f7220746865207a6560008201527f726f206164647265737300000000000000000000000000000000000000000000602082015250565b7f4552433732313a206f776e657220717565727920666f72206e6f6e657869737460008201527f656e7420746f6b656e0000000000000000000000000000000000000000000000602082015250565b7f4552433732313a206d696e7420746f20746865207a65726f2061646472657373600082015250565b7f4552433732313a20617070726f76656420717565727920666f72206e6f6e657860008201527f697374656e7420746f6b656e0000000000000000000000000000000000000000602082015250565b7f4552433732314d657461646174613a2055524920736574206f66206e6f6e657860008201527f697374656e7420746f6b656e0000000000000000000000000000000000000000602082015250565b7f4f776e61626c653a2063616c6c6572206973206e6f7420746865206f776e6572600082015250565b7f4552433732314d657461646174613a2055524920717565727920666f72206e6f60008201527f6e6578697374656e7420746f6b656e0000000000000000000000000000000000602082015250565b7f4552433732313a20617070726f76616c20746f2063757272656e74206f776e6560008201527f7200000000000000000000000000000000000000000000000000000000000000602082015250565b7f4552433732313a207472616e736665722063616c6c6572206973206e6f74206f60008201527f776e6572206e6f7220617070726f766564000000000000000000000000000000602082015250565b61304081612930565b811461304b57600080fd5b50565b61305781612942565b811461306257600080fd5b50565b61306e8161294e565b811461307957600080fd5b50565b6130858161299a565b811461309057600080fd5b5056fea26469706673582212205deb64ad1547fb59cfaa51413ea15d9cda0e9025ab71e776aef68a7a49fdca9964736f6c63430008040033",
  "linkReferences": {},
  "deployedLinkReferences": {}
}