{
  "_format": "hh-sol-artifact-1",
  "contractName": "BioNFT2",
  "sourceName": "contracts/BioNFT2.sol",
  "abi": [
    {
      "inputs": [],
      "stateMutability": "payable",
      "type": "constructor"
    },
    {
      "anonymous": false,
      "inputs": [
        {
          "indexed": true,
          "internalType": "address",
          "name": "owner",
          "type": "address"
        },
        {
          "indexed": true,
          "internalType": "address",
          "name": "approved",
          "type": "address"
        },
        {
          "indexed": true,
          "internalType": "uint256",
          "name": "tokenId",
          "type": "uint256"
        }
      ],
      "name": "Approval",
      "type": "event"
    },
    {
      "anonymous": false,
      "inputs": [
        {
          "indexed": true,
          "internalType": "address",
          "name": "owner",
          "type": "address"
        },
        {
          "indexed": true,
          "internalType": "address",
          "name": "operator",
          "type": "address"
        },
        {
          "indexed": false,
          "internalType": "bool",
          "name": "approved",
          "type": "bool"
        }
      ],
      "name": "ApprovalForAll",
      "type": "event"
    },
    {
      "anonymous": false,
      "inputs": [
        {
          "indexed": true,
          "internalType": "address",
          "name": "previousOwner",
          "type": "address"
        },
        {
          "indexed": true,
          "internalType": "address",
          "name": "newOwner",
          "type": "address"
        }
      ],
      "name": "OwnershipTransferred",
      "type": "event"
    },
    {
      "anonymous": false,
      "inputs": [
        {
          "indexed": true,
          "internalType": "address",
          "name": "from",
          "type": "address"
        },
        {
          "indexed": true,
          "internalType": "address",
          "name": "to",
          "type": "address"
        },
        {
          "indexed": true,
          "internalType": "uint256",
          "name": "tokenId",
          "type": "uint256"
        }
      ],
      "name": "Transfer",
      "type": "event"
    },
    {
      "inputs": [
        {
          "internalType": "address",
          "name": "to",
          "type": "address"
        },
        {
          "internalType": "uint256",
          "name": "tokenId",
          "type": "uint256"
        }
      ],
      "name": "approve",
      "outputs": [],
      "stateMutability": "nonpayable",
      "type": "function"
    },
    {
      "inputs": [
        {
          "internalType": "address",
          "name": "owner",
          "type": "address"
        }
      ],
      "name": "balanceOf",
      "outputs": [
        {
          "internalType": "uint256",
          "name": "",
          "type": "uint256"
        }
      ],
      "stateMutability": "view",
      "type": "function"
    },
    {
      "inputs": [
        {
          "internalType": "string",
          "name": "tokenURI",
          "type": "string"
        }
      ],
      "name": "claimItem",
      "outputs": [
        {
          "internalType": "uint256",
          "name": "",
          "type": "uint256"
        }
      ],
      "stateMutability": "payable",
      "type": "function"
    },
    {
      "inputs": [
        {
          "internalType": "uint256",
          "name": "tokenId",
          "type": "uint256"
        }
      ],
      "name": "getApproved",
      "outputs": [
        {
          "internalType": "address",
          "name": "",
          "type": "address"
        }
      ],
      "stateMutability": "view",
      "type": "function"
    },
    {
      "inputs": [
        {
          "internalType": "address",
          "name": "owner",
          "type": "address"
        },
        {
          "internalType": "address",
          "name": "operator",
          "type": "address"
        }
      ],
      "name": "isApprovedForAll",
      "outputs": [
        {
          "internalType": "bool",
          "name": "",
          "type": "bool"
        }
      ],
      "stateMutability": "view",
      "type": "function"
    },
    {
      "inputs": [],
      "name": "mintPrice",
      "outputs": [
        {
          "internalType": "uint256",
          "name": "",
          "type": "uint256"
        }
      ],
      "stateMutability": "view",
      "type": "function"
    },
    {
      "inputs": [],
      "name": "name",
      "outputs": [
        {
          "internalType": "string",
          "name": "",
          "type": "string"
        }
      ],
      "stateMutability": "view",
      "type": "function"
    },
    {
      "inputs": [],
      "name": "owner",
      "outputs": [
        {
          "internalType": "address",
          "name": "",
          "type": "address"
        }
      ],
      "stateMutability": "view",
      "type": "function"
    },
    {
      "inputs": [
        {
          "internalType": "uint256",
          "name": "tokenId",
          "type": "uint256"
        }
      ],
      "name": "ownerOf",
      "outputs": [
        {
          "internalType": "address",
          "name": "",
          "type": "address"
        }
      ],
      "stateMutability": "view",
      "type": "function"
    },
    {
      "inputs": [],
      "name": "renounceOwnership",
      "outputs": [],
      "stateMutability": "nonpayable",
      "type": "function"
    },
    {
      "inputs": [
        {
          "internalType": "address",
          "name": "from",
          "type": "address"
        },
        {
          "internalType": "address",
          "name": "to",
          "type": "address"
        },
        {
          "internalType": "uint256",
          "name": "tokenId",
          "type": "uint256"
        }
      ],
      "name": "safeTransferFrom",
      "outputs": [],
      "stateMutability": "nonpayable",
      "type": "function"
    },
    {
      "inputs": [
        {
          "internalType": "address",
          "name": "from",
          "type": "address"
        },
        {
          "internalType": "address",
          "name": "to",
          "type": "address"
        },
        {
          "internalType": "uint256",
          "name": "tokenId",
          "type": "uint256"
        },
        {
          "internalType": "bytes",
          "name": "_data",
          "type": "bytes"
        }
      ],
      "name": "safeTransferFrom",
      "outputs": [],
      "stateMutability": "nonpayable",
      "type": "function"
    },
    {
      "inputs": [
        {
          "internalType": "address",
          "name": "operator",
          "type": "address"
        },
        {
          "internalType": "bool",
          "name": "approved",
          "type": "bool"
        }
      ],
      "name": "setApprovalForAll",
      "outputs": [],
      "stateMutability": "nonpayable",
      "type": "function"
    },
    {
      "inputs": [
        {
          "internalType": "string",
          "name": "baseURI_",
          "type": "string"
        }
      ],
      "name": "setBaseURI",
      "outputs": [],
      "stateMutability": "nonpayable",
      "type": "function"
    },
    {
      "inputs": [
        {
          "internalType": "bytes4",
          "name": "interfaceId",
          "type": "bytes4"
        }
      ],
      "name": "supportsInterface",
      "outputs": [
        {
          "internalType": "bool",
          "name": "",
          "type": "bool"
        }
      ],
      "stateMutability": "view",
      "type": "function"
    },
    {
      "inputs": [],
      "name": "symbol",
      "outputs": [
        {
          "internalType": "string",
          "name": "",
          "type": "string"
        }
      ],
      "stateMutability": "view",
      "type": "function"
    },
    {
      "inputs": [
        {
          "internalType": "uint256",
          "name": "tokenId",
          "type": "uint256"
        }
      ],
      "name": "tokenURI",
      "outputs": [
        {
          "internalType": "string",
          "name": "",
          "type": "string"
        }
      ],
      "stateMutability": "view",
      "type": "function"
    },
    {
      "inputs": [],
      "name": "totalSupply",
      "outputs": [
        {
          "internalType": "uint256",
          "name": "",
          "type": "uint256"
        }
      ],
      "stateMutability": "view",
      "type": "function"
    },
    {
      "inputs": [
        {
          "internalType": "address",
          "name": "from",
          "type": "address"
        },
        {
          "internalType": "address",
          "name": "to",
          "type": "address"
        },
        {
          "internalType": "uint256",
          "name": "tokenId",
          "type": "uint256"
        }
      ],
      "name": "transferFrom",
      "outputs": [],
      "stateMutability": "nonpayable",
      "type": "function"
    },
    {
      "inputs": [
        {
          "internalType": "address",
          "name": "newOwner",
          "type": "address"
        }
      ],
      "name": "transferOwnership",
      "outputs": [],
      "stateMutability": "nonpayable",
      "type": "function"
    }
  ],
  "bytecode": "0x60806040526040518060400160405280600f81526020017f42696f436f6c6c65637469626c657300000000000000000000000000000000008152506040518060400160405280600481526020017f42494f43000000000000000000000000000000000000000000000000000000008152506200009062000084620000d860201b60201c565b620000e060201b60201c565b8160019080519060200190620000a8929190620001a4565b508060029080519060200190620000c1929190620001a4565b505050662386f26fc10000600781905550620002b9565b600033905090565b60008060009054906101000a900473ffffffffffffffffffffffffffffffffffffffff169050816000806101000a81548173ffffffffffffffffffffffffffffffffffffffff021916908373ffffffffffffffffffffffffffffffffffffffff1602179055508173ffffffffffffffffffffffffffffffffffffffff168173ffffffffffffffffffffffffffffffffffffffff167f8be0079c531659141344cd1fd0a4f28419497f9722a3daafe3b4186f6b6457e060405160405180910390a35050565b828054620001b29062000254565b90600052602060002090601f016020900481019282620001d6576000855562000222565b82601f10620001f157805160ff191683800117855562000222565b8280016001018555821562000222579182015b828111156200022157825182559160200191906001019062000204565b5b50905062000231919062000235565b5090565b5b808211156200025057600081600090555060010162000236565b5090565b600060028204905060018216806200026d57607f821691505b602082108114156200028457620002836200028a565b5b50919050565b7f4e487b7100000000000000000000000000000000000000000000000000000000600052602260045260246000fd5b61314280620002c96000396000f3fe60806040526004361061011f5760003560e01c806370a08231116100a0578063a850e8bd11610064578063a850e8bd146103d3578063b88d4fde14610403578063c87b56dd1461042c578063e985e9c514610469578063f2fde38b146104a65761011f565b806370a0823114610300578063715018a61461033d5780638da5cb5b1461035457806395d89b411461037f578063a22cb465146103aa5761011f565b806323b872dd116100e757806323b872dd1461021d57806342842e0e1461024657806355f804b31461026f5780636352211e146102985780636817c76c146102d55761011f565b806301ffc9a71461012457806306fdde0314610161578063081812fc1461018c578063095ea7b3146101c957806318160ddd146101f2575b600080fd5b34801561013057600080fd5b5061014b60048036038101906101469190612142565b6104cf565b60405161015891906125ac565b60405180910390f35b34801561016d57600080fd5b506101766105b1565b60405161018391906125c7565b60405180910390f35b34801561019857600080fd5b506101b360048036038101906101ae91906121d5565b610643565b6040516101c09190612545565b60405180910390f35b3480156101d557600080fd5b506101f060048036038101906101eb9190612106565b6106c8565b005b3480156101fe57600080fd5b506102076107e0565b6040516102149190612809565b60405180910390f35b34801561022957600080fd5b50610244600480360381019061023f9190612000565b6107f1565b005b34801561025257600080fd5b5061026d60048036038101906102689190612000565b610851565b005b34801561027b57600080fd5b5061029660048036038101906102919190612194565b610871565b005b3480156102a457600080fd5b506102bf60048036038101906102ba91906121d5565b610907565b6040516102cc9190612545565b60405180910390f35b3480156102e157600080fd5b506102ea6109b9565b6040516102f79190612809565b60405180910390f35b34801561030c57600080fd5b5061032760048036038101906103229190611f9b565b6109bf565b6040516103349190612809565b60405180910390f35b34801561034957600080fd5b50610352610a77565b005b34801561036057600080fd5b50610369610aff565b6040516103769190612545565b60405180910390f35b34801561038b57600080fd5b50610394610b28565b6040516103a191906125c7565b60405180910390f35b3480156103b657600080fd5b506103d160048036038101906103cc91906120ca565b610bba565b005b6103ed60048036038101906103e89190612194565b610bd0565b6040516103fa9190612809565b60405180910390f35b34801561040f57600080fd5b5061042a6004803603810190610425919061204f565b610c07565b005b34801561043857600080fd5b50610453600480360381019061044e91906121d5565b610c69565b60405161046091906125c7565b60405180910390f35b34801561047557600080fd5b50610490600480360381019061048b9190611fc4565b610ddc565b60405161049d91906125ac565b60405180910390f35b3480156104b257600080fd5b506104cd60048036038101906104c89190611f9b565b610e70565b005b60007f80ac58cd000000000000000000000000000000000000000000000000000000007bffffffffffffffffffffffffffffffffffffffffffffffffffffffff1916827bffffffffffffffffffffffffffffffffffffffffffffffffffffffff1916148061059a57507f5b5e139f000000000000000000000000000000000000000000000000000000007bffffffffffffffffffffffffffffffffffffffffffffffffffffffff1916827bffffffffffffffffffffffffffffffffffffffffffffffffffffffff1916145b806105aa57506105a982610f68565b5b9050919050565b6060600180546105c090612a5f565b80601f01602080910402602001604051908101604052809291908181526020018280546105ec90612a5f565b80156106395780601f1061060e57610100808354040283529160200191610639565b820191906000526020600020905b81548152906001019060200180831161061c57829003601f168201915b5050505050905090565b600061064e82610fd2565b61068d576040517f08c379a000000000000000000000000000000000000000000000000000000000815260040161068490612749565b60405180910390fd5b6005600083815260200190815260200160002060009054906101000a900473ffffffffffffffffffffffffffffffffffffffff169050919050565b60006106d382610907565b90508073ffffffffffffffffffffffffffffffffffffffff168373ffffffffffffffffffffffffffffffffffffffff161415610744576040517f08c379a000000000000000000000000000000000000000000000000000000000815260040161073b906127c9565b60405180910390fd5b8073ffffffffffffffffffffffffffffffffffffffff1661076361103e565b73ffffffffffffffffffffffffffffffffffffffff16148061079257506107918161078c61103e565b610ddc565b5b6107d1576040517f08c379a00000000000000000000000000000000000000000000000000000000081526004016107c8906126c9565b60405180910390fd5b6107db8383611046565b505050565b60006107ec60086110ff565b905090565b6108026107fc61103e565b8261110d565b610841576040517f08c379a0000000000000000000000000000000000000000000000000000000008152600401610838906127e9565b60405180910390fd5b61084c8383836111eb565b505050565b61086c83838360405180602001604052806000815250610c07565b505050565b61087961103e565b73ffffffffffffffffffffffffffffffffffffffff16610897610aff565b73ffffffffffffffffffffffffffffffffffffffff16146108ed576040517f08c379a00000000000000000000000000000000000000000000000000000000081526004016108e490612789565b60405180910390fd5b80600a9080519060200190610903929190611dbf565b5050565b6000806003600084815260200190815260200160002060009054906101000a900473ffffffffffffffffffffffffffffffffffffffff169050600073ffffffffffffffffffffffffffffffffffffffff168173ffffffffffffffffffffffffffffffffffffffff1614156109b0576040517f08c379a00000000000000000000000000000000000000000000000000000000081526004016109a790612709565b60405180910390fd5b80915050919050565b60075481565b60008073ffffffffffffffffffffffffffffffffffffffff168273ffffffffffffffffffffffffffffffffffffffff161415610a30576040517f08c379a0000000000000000000000000000000000000000000000000000000008152600401610a27906126e9565b60405180910390fd5b600460008373ffffffffffffffffffffffffffffffffffffffff1673ffffffffffffffffffffffffffffffffffffffff168152602001908152602001600020549050919050565b610a7f61103e565b73ffffffffffffffffffffffffffffffffffffffff16610a9d610aff565b73ffffffffffffffffffffffffffffffffffffffff1614610af3576040517f08c379a0000000000000000000000000000000000000000000000000000000008152600401610aea90612789565b60405180910390fd5b610afd6000611452565b565b60008060009054906101000a900473ffffffffffffffffffffffffffffffffffffffff16905090565b606060028054610b3790612a5f565b80601f0160208091040260200160405190810160405280929190818152602001828054610b6390612a5f565b8015610bb05780601f10610b8557610100808354040283529160200191610bb0565b820191906000526020600020905b815481529060010190602001808311610b9357829003601f168201915b5050505050905090565b610bcc610bc561103e565b8383611516565b5050565b6000610bdc6008611683565b6000610be860086110ff565b9050610bf43382611699565b610bfe81846116b7565b80915050919050565b610c18610c1261103e565b8361110d565b610c57576040517f08c379a0000000000000000000000000000000000000000000000000000000008152600401610c4e906127e9565b60405180910390fd5b610c638484848461172b565b50505050565b6060610c7482610fd2565b610cb3576040517f08c379a0000000000000000000000000000000000000000000000000000000008152600401610caa906127a9565b60405180910390fd5b6000600960008481526020019081526020016000208054610cd390612a5f565b80601f0160208091040260200160405190810160405280929190818152602001828054610cff90612a5f565b8015610d4c5780601f10610d2157610100808354040283529160200191610d4c565b820191906000526020600020905b815481529060010190602001808311610d2f57829003601f168201915b505050505090506000610d5d611787565b9050600081511415610d73578192505050610dd7565b600082511115610da8578082604051602001610d90929190612521565b60405160208183030381529060405292505050610dd7565b80610db285611819565b604051602001610dc3929190612521565b604051602081830303815290604052925050505b919050565b6000600660008473ffffffffffffffffffffffffffffffffffffffff1673ffffffffffffffffffffffffffffffffffffffff16815260200190815260200160002060008373ffffffffffffffffffffffffffffffffffffffff1673ffffffffffffffffffffffffffffffffffffffff16815260200190815260200160002060009054906101000a900460ff16905092915050565b610e7861103e565b73ffffffffffffffffffffffffffffffffffffffff16610e96610aff565b73ffffffffffffffffffffffffffffffffffffffff1614610eec576040517f08c379a0000000000000000000000000000000000000000000000000000000008152600401610ee390612789565b60405180910390fd5b600073ffffffffffffffffffffffffffffffffffffffff168173ffffffffffffffffffffffffffffffffffffffff161415610f5c576040517f08c379a0000000000000000000000000000000000000000000000000000000008152600401610f5390612609565b60405180910390fd5b610f6581611452565b50565b60007f01ffc9a7000000000000000000000000000000000000000000000000000000007bffffffffffffffffffffffffffffffffffffffffffffffffffffffff1916827bffffffffffffffffffffffffffffffffffffffffffffffffffffffff1916149050919050565b60008073ffffffffffffffffffffffffffffffffffffffff166003600084815260200190815260200160002060009054906101000a900473ffffffffffffffffffffffffffffffffffffffff1673ffffffffffffffffffffffffffffffffffffffff1614159050919050565b600033905090565b816005600083815260200190815260200160002060006101000a81548173ffffffffffffffffffffffffffffffffffffffff021916908373ffffffffffffffffffffffffffffffffffffffff160217905550808273ffffffffffffffffffffffffffffffffffffffff166110b983610907565b73ffffffffffffffffffffffffffffffffffffffff167f8c5be1e5ebec7d5bd14f71427d1e84f3dd0314c0f7b2291e5b200ac8c7c3b92560405160405180910390a45050565b600081600001549050919050565b600061111882610fd2565b611157576040517f08c379a000000000000000000000000000000000000000000000000000000000815260040161114e906126a9565b60405180910390fd5b600061116283610907565b90508073ffffffffffffffffffffffffffffffffffffffff168473ffffffffffffffffffffffffffffffffffffffff1614806111d157508373ffffffffffffffffffffffffffffffffffffffff166111b984610643565b73ffffffffffffffffffffffffffffffffffffffff16145b806111e257506111e18185610ddc565b5b91505092915050565b8273ffffffffffffffffffffffffffffffffffffffff1661120b82610907565b73ffffffffffffffffffffffffffffffffffffffff1614611261576040517f08c379a000000000000000000000000000000000000000000000000000000000815260040161125890612629565b60405180910390fd5b600073ffffffffffffffffffffffffffffffffffffffff168273ffffffffffffffffffffffffffffffffffffffff1614156112d1576040517f08c379a00000000000000000000000000000000000000000000000000000000081526004016112c890612669565b60405180910390fd5b6112dc8383836119c6565b6112e7600082611046565b6001600460008573ffffffffffffffffffffffffffffffffffffffff1673ffffffffffffffffffffffffffffffffffffffff16815260200190815260200160002060008282546113379190612975565b925050819055506001600460008473ffffffffffffffffffffffffffffffffffffffff1673ffffffffffffffffffffffffffffffffffffffff168152602001908152602001600020600082825461138e91906128ee565b92505081905550816003600083815260200190815260200160002060006101000a81548173ffffffffffffffffffffffffffffffffffffffff021916908373ffffffffffffffffffffffffffffffffffffffff160217905550808273ffffffffffffffffffffffffffffffffffffffff168473ffffffffffffffffffffffffffffffffffffffff167fddf252ad1be2c89b69c2b068fc378daa952ba7f163c4a11628f55a4df523b3ef60405160405180910390a461144d8383836119cb565b505050565b60008060009054906101000a900473ffffffffffffffffffffffffffffffffffffffff169050816000806101000a81548173ffffffffffffffffffffffffffffffffffffffff021916908373ffffffffffffffffffffffffffffffffffffffff1602179055508173ffffffffffffffffffffffffffffffffffffffff168173ffffffffffffffffffffffffffffffffffffffff167f8be0079c531659141344cd1fd0a4f28419497f9722a3daafe3b4186f6b6457e060405160405180910390a35050565b8173ffffffffffffffffffffffffffffffffffffffff168373ffffffffffffffffffffffffffffffffffffffff161415611585576040517f08c379a000000000000000000000000000000000000000000000000000000000815260040161157c90612689565b60405180910390fd5b80600660008573ffffffffffffffffffffffffffffffffffffffff1673ffffffffffffffffffffffffffffffffffffffff16815260200190815260200160002060008473ffffffffffffffffffffffffffffffffffffffff1673ffffffffffffffffffffffffffffffffffffffff16815260200190815260200160002060006101000a81548160ff0219169083151502179055508173ffffffffffffffffffffffffffffffffffffffff168373ffffffffffffffffffffffffffffffffffffffff167f17307eab39ab6107e8899845ad3d59bd9653f200f220920489ca2b5937696c318360405161167691906125ac565b60405180910390a3505050565b6001816000016000828254019250508190555050565b6116b38282604051806020016040528060008152506119d0565b5050565b6116c082610fd2565b6116ff576040517f08c379a00000000000000000000000000000000000000000000000000000000081526004016116f690612769565b60405180910390fd5b80600960008481526020019081526020016000209080519060200190611726929190611dbf565b505050565b6117368484846111eb565b61174284848484611a2b565b611781576040517f08c379a0000000000000000000000000000000000000000000000000000000008152600401611778906125e9565b60405180910390fd5b50505050565b6060600a805461179690612a5f565b80601f01602080910402602001604051908101604052809291908181526020018280546117c290612a5f565b801561180f5780601f106117e45761010080835404028352916020019161180f565b820191906000526020600020905b8154815290600101906020018083116117f257829003601f168201915b5050505050905090565b60606000821415611861576040518060400160405280600181526020017f300000000000000000000000000000000000000000000000000000000000000081525090506119c1565b600082905060005b6000821461189357808061187c90612ac2565b915050600a8261188c9190612944565b9150611869565b60008167ffffffffffffffff8111156118d5577f4e487b7100000000000000000000000000000000000000000000000000000000600052604160045260246000fd5b6040519080825280601f01601f1916602001820160405280156119075781602001600182028036833780820191505090505b5090505b600085146119ba576001826119209190612975565b9150600a8561192f9190612b0b565b603061193b91906128ee565b60f81b818381518110611977577f4e487b7100000000000000000000000000000000000000000000000000000000600052603260045260246000fd5b60200101907effffffffffffffffffffffffffffffffffffffffffffffffffffffffffffff1916908160001a905350600a856119b39190612944565b945061190b565b8093505050505b919050565b505050565b505050565b6119da8383611bc2565b6119e76000848484611a2b565b611a26576040517f08c379a0000000000000000000000000000000000000000000000000000000008152600401611a1d906125e9565b60405180910390fd5b505050565b6000611a4c8473ffffffffffffffffffffffffffffffffffffffff16611d9c565b15611bb5578373ffffffffffffffffffffffffffffffffffffffff1663150b7a02611a7561103e565b8786866040518563ffffffff1660e01b8152600401611a979493929190612560565b602060405180830381600087803b158015611ab157600080fd5b505af1925050508015611ae257506040513d601f19601f82011682018060405250810190611adf919061216b565b60015b611b65573d8060008114611b12576040519150601f19603f3d011682016040523d82523d6000602084013e611b17565b606091505b50600081511415611b5d576040517f08c379a0000000000000000000000000000000000000000000000000000000008152600401611b54906125e9565b60405180910390fd5b805181602001fd5b63150b7a0260e01b7bffffffffffffffffffffffffffffffffffffffffffffffffffffffff1916817bffffffffffffffffffffffffffffffffffffffffffffffffffffffff191614915050611bba565b600190505b949350505050565b600073ffffffffffffffffffffffffffffffffffffffff168273ffffffffffffffffffffffffffffffffffffffff161415611c32576040517f08c379a0000000000000000000000000000000000000000000000000000000008152600401611c2990612729565b60405180910390fd5b611c3b81610fd2565b15611c7b576040517f08c379a0000000000000000000000000000000000000000000000000000000008152600401611c7290612649565b60405180910390fd5b611c87600083836119c6565b6001600460008473ffffffffffffffffffffffffffffffffffffffff1673ffffffffffffffffffffffffffffffffffffffff1681526020019081526020016000206000828254611cd791906128ee565b92505081905550816003600083815260200190815260200160002060006101000a81548173ffffffffffffffffffffffffffffffffffffffff021916908373ffffffffffffffffffffffffffffffffffffffff160217905550808273ffffffffffffffffffffffffffffffffffffffff16600073ffffffffffffffffffffffffffffffffffffffff167fddf252ad1be2c89b69c2b068fc378daa952ba7f163c4a11628f55a4df523b3ef60405160405180910390a4611d98600083836119cb565b5050565b6000808273ffffffffffffffffffffffffffffffffffffffff163b119050919050565b828054611dcb90612a5f565b90600052602060002090601f016020900481019282611ded5760008555611e34565b82601f10611e0657805160ff1916838001178555611e34565b82800160010185558215611e34579182015b82811115611e33578251825591602001919060010190611e18565b5b509050611e419190611e45565b5090565b5b80821115611e5e576000816000905550600101611e46565b5090565b6000611e75611e7084612849565b612824565b905082815260208101848484011115611e8d57600080fd5b611e98848285612a1d565b509392505050565b6000611eb3611eae8461287a565b612824565b905082815260208101848484011115611ecb57600080fd5b611ed6848285612a1d565b509392505050565b600081359050611eed816130b0565b92915050565b600081359050611f02816130c7565b92915050565b600081359050611f17816130de565b92915050565b600081519050611f2c816130de565b92915050565b600082601f830112611f4357600080fd5b8135611f53848260208601611e62565b91505092915050565b600082601f830112611f6d57600080fd5b8135611f7d848260208601611ea0565b91505092915050565b600081359050611f95816130f5565b92915050565b600060208284031215611fad57600080fd5b6000611fbb84828501611ede565b91505092915050565b60008060408385031215611fd757600080fd5b6000611fe585828601611ede565b9250506020611ff685828601611ede565b9150509250929050565b60008060006060848603121561201557600080fd5b600061202386828701611ede565b935050602061203486828701611ede565b925050604061204586828701611f86565b9150509250925092565b6000806000806080858703121561206557600080fd5b600061207387828801611ede565b945050602061208487828801611ede565b935050604061209587828801611f86565b925050606085013567ffffffffffffffff8111156120b257600080fd5b6120be87828801611f32565b91505092959194509250565b600080604083850312156120dd57600080fd5b60006120eb85828601611ede565b92505060206120fc85828601611ef3565b9150509250929050565b6000806040838503121561211957600080fd5b600061212785828601611ede565b925050602061213885828601611f86565b9150509250929050565b60006020828403121561215457600080fd5b600061216284828501611f08565b91505092915050565b60006020828403121561217d57600080fd5b600061218b84828501611f1d565b91505092915050565b6000602082840312156121a657600080fd5b600082013567ffffffffffffffff8111156121c057600080fd5b6121cc84828501611f5c565b91505092915050565b6000602082840312156121e757600080fd5b60006121f584828501611f86565b91505092915050565b612207816129a9565b82525050565b612216816129bb565b82525050565b6000612227826128ab565b61223181856128c1565b9350612241818560208601612a2c565b61224a81612bf8565b840191505092915050565b6000612260826128b6565b61226a81856128d2565b935061227a818560208601612a2c565b61228381612bf8565b840191505092915050565b6000612299826128b6565b6122a381856128e3565b93506122b3818560208601612a2c565b80840191505092915050565b60006122cc6032836128d2565b91506122d782612c09565b604082019050919050565b60006122ef6026836128d2565b91506122fa82612c58565b604082019050919050565b60006123126025836128d2565b915061231d82612ca7565b604082019050919050565b6000612335601c836128d2565b915061234082612cf6565b602082019050919050565b60006123586024836128d2565b915061236382612d1f565b604082019050919050565b600061237b6019836128d2565b915061238682612d6e565b602082019050919050565b600061239e602c836128d2565b91506123a982612d97565b604082019050919050565b60006123c16038836128d2565b91506123cc82612de6565b604082019050919050565b60006123e4602a836128d2565b91506123ef82612e35565b604082019050919050565b60006124076029836128d2565b915061241282612e84565b604082019050919050565b600061242a6020836128d2565b915061243582612ed3565b602082019050919050565b600061244d602c836128d2565b915061245882612efc565b604082019050919050565b6000612470602c836128d2565b915061247b82612f4b565b604082019050919050565b60006124936020836128d2565b915061249e82612f9a565b602082019050919050565b60006124b6602f836128d2565b91506124c182612fc3565b604082019050919050565b60006124d96021836128d2565b91506124e482613012565b604082019050919050565b60006124fc6031836128d2565b915061250782613061565b604082019050919050565b61251b81612a13565b82525050565b600061252d828561228e565b9150612539828461228e565b91508190509392505050565b600060208201905061255a60008301846121fe565b92915050565b600060808201905061257560008301876121fe565b61258260208301866121fe565b61258f6040830185612512565b81810360608301526125a1818461221c565b905095945050505050565b60006020820190506125c1600083018461220d565b92915050565b600060208201905081810360008301526125e18184612255565b905092915050565b60006020820190508181036000830152612602816122bf565b9050919050565b60006020820190508181036000830152612622816122e2565b9050919050565b6000602082019050818103600083015261264281612305565b9050919050565b6000602082019050818103600083015261266281612328565b9050919050565b600060208201905081810360008301526126828161234b565b9050919050565b600060208201905081810360008301526126a28161236e565b9050919050565b600060208201905081810360008301526126c281612391565b9050919050565b600060208201905081810360008301526126e2816123b4565b9050919050565b60006020820190508181036000830152612702816123d7565b9050919050565b60006020820190508181036000830152612722816123fa565b9050919050565b600060208201905081810360008301526127428161241d565b9050919050565b6000602082019050818103600083015261276281612440565b9050919050565b6000602082019050818103600083015261278281612463565b9050919050565b600060208201905081810360008301526127a281612486565b9050919050565b600060208201905081810360008301526127c2816124a9565b9050919050565b600060208201905081810360008301526127e2816124cc565b9050919050565b60006020820190508181036000830152612802816124ef565b9050919050565b600060208201905061281e6000830184612512565b92915050565b600061282e61283f565b905061283a8282612a91565b919050565b6000604051905090565b600067ffffffffffffffff82111561286457612863612bc9565b5b61286d82612bf8565b9050602081019050919050565b600067ffffffffffffffff82111561289557612894612bc9565b5b61289e82612bf8565b9050602081019050919050565b600081519050919050565b600081519050919050565b600082825260208201905092915050565b600082825260208201905092915050565b600081905092915050565b60006128f982612a13565b915061290483612a13565b9250827fffffffffffffffffffffffffffffffffffffffffffffffffffffffffffffffff0382111561293957612938612b3c565b5b828201905092915050565b600061294f82612a13565b915061295a83612a13565b92508261296a57612969612b6b565b5b828204905092915050565b600061298082612a13565b915061298b83612a13565b92508282101561299e5761299d612b3c565b5b828203905092915050565b60006129b4826129f3565b9050919050565b60008115159050919050565b60007fffffffff0000000000000000000000000000000000000000000000000000000082169050919050565b600073ffffffffffffffffffffffffffffffffffffffff82169050919050565b6000819050919050565b82818337600083830152505050565b60005b83811015612a4a578082015181840152602081019050612a2f565b83811115612a59576000848401525b50505050565b60006002820490506001821680612a7757607f821691505b60208210811415612a8b57612a8a612b9a565b5b50919050565b612a9a82612bf8565b810181811067ffffffffffffffff82111715612ab957612ab8612bc9565b5b80604052505050565b6000612acd82612a13565b91507fffffffffffffffffffffffffffffffffffffffffffffffffffffffffffffffff821415612b0057612aff612b3c565b5b600182019050919050565b6000612b1682612a13565b9150612b2183612a13565b925082612b3157612b30612b6b565b5b828206905092915050565b7f4e487b7100000000000000000000000000000000000000000000000000000000600052601160045260246000fd5b7f4e487b7100000000000000000000000000000000000000000000000000000000600052601260045260246000fd5b7f4e487b7100000000000000000000000000000000000000000000000000000000600052602260045260246000fd5b7f4e487b7100000000000000000000000000000000000000000000000000000000600052604160045260246000fd5b6000601f19601f8301169050919050565b7f4552433732313a207472616e7366657220746f206e6f6e20455243373231526560008201527f63656976657220696d706c656d656e7465720000000000000000000000000000602082015250565b7f4f776e61626c653a206e6577206f776e657220697320746865207a65726f206160008201527f6464726573730000000000000000000000000000000000000000000000000000602082015250565b7f4552433732313a207472616e736665722066726f6d20696e636f72726563742060008201527f6f776e6572000000000000000000000000000000000000000000000000000000602082015250565b7f4552433732313a20746f6b656e20616c7265616479206d696e74656400000000600082015250565b7f4552433732313a207472616e7366657220746f20746865207a65726f2061646460008201527f7265737300000000000000000000000000000000000000000000000000000000602082015250565b7f4552433732313a20617070726f766520746f2063616c6c657200000000000000600082015250565b7f4552433732313a206f70657261746f7220717565727920666f72206e6f6e657860008201527f697374656e7420746f6b656e0000000000000000000000000000000000000000602082015250565b7f4552433732313a20617070726f76652063616c6c6572206973206e6f74206f7760008201527f6e6572206e6f7220617070726f76656420666f7220616c6c0000000000000000602082015250565b7f4552433732313a2062616c616e636520717565727920666f7220746865207a6560008201527f726f206164647265737300000000000000000000000000000000000000000000602082015250565b7f4552433732313a206f776e657220717565727920666f72206e6f6e657869737460008201527f656e7420746f6b656e0000000000000000000000000000000000000000000000602082015250565b7f4552433732313a206d696e7420746f20746865207a65726f2061646472657373600082015250565b7f4552433732313a20617070726f76656420717565727920666f72206e6f6e657860008201527f697374656e7420746f6b656e0000000000000000000000000000000000000000602082015250565b7f4552433732314d657461646174613a2055524920736574206f66206e6f6e657860008201527f697374656e7420746f6b656e0000000000000000000000000000000000000000602082015250565b7f4f776e61626c653a2063616c6c6572206973206e6f7420746865206f776e6572600082015250565b7f4552433732314d657461646174613a2055524920717565727920666f72206e6f60008201527f6e6578697374656e7420746f6b656e0000000000000000000000000000000000602082015250565b7f4552433732313a20617070726f76616c20746f2063757272656e74206f776e6560008201527f7200000000000000000000000000000000000000000000000000000000000000602082015250565b7f4552433732313a207472616e736665722063616c6c6572206973206e6f74206f60008201527f776e6572206e6f7220617070726f766564000000000000000000000000000000602082015250565b6130b9816129a9565b81146130c457600080fd5b50565b6130d0816129bb565b81146130db57600080fd5b50565b6130e7816129c7565b81146130f257600080fd5b50565b6130fe81612a13565b811461310957600080fd5b5056fea264697066735822122054ec27564fb2da7091b0ec008c2ce978a9b99ee0a4b80a64208b1e75d8fb9af764736f6c63430008040033",
  "linkReferences": {},
  "deployedLinkReferences": {}
}