{
  "_format": "hh-sol-artifact-1",
  "contractName": "BioNFT2",
  "sourceName": "contracts/BioNFT2.sol",
  "abi": [
    {
      "inputs": [],
      "stateMutability": "payable",
      "type": "constructor"
    },
    {
      "anonymous": false,
      "inputs": [
        {
          "indexed": true,
          "internalType": "address",
          "name": "owner",
          "type": "address"
        },
        {
          "indexed": true,
          "internalType": "address",
          "name": "approved",
          "type": "address"
        },
        {
          "indexed": true,
          "internalType": "uint256",
          "name": "tokenId",
          "type": "uint256"
        }
      ],
      "name": "Approval",
      "type": "event"
    },
    {
      "anonymous": false,
      "inputs": [
        {
          "indexed": true,
          "internalType": "address",
          "name": "owner",
          "type": "address"
        },
        {
          "indexed": true,
          "internalType": "address",
          "name": "operator",
          "type": "address"
        },
        {
          "indexed": false,
          "internalType": "bool",
          "name": "approved",
          "type": "bool"
        }
      ],
      "name": "ApprovalForAll",
      "type": "event"
    },
    {
      "anonymous": false,
      "inputs": [
        {
          "indexed": true,
          "internalType": "address",
          "name": "previousOwner",
          "type": "address"
        },
        {
          "indexed": true,
          "internalType": "address",
          "name": "newOwner",
          "type": "address"
        }
      ],
      "name": "OwnershipTransferred",
      "type": "event"
    },
    {
      "anonymous": false,
      "inputs": [
        {
          "indexed": true,
          "internalType": "address",
          "name": "from",
          "type": "address"
        },
        {
          "indexed": true,
          "internalType": "address",
          "name": "to",
          "type": "address"
        },
        {
          "indexed": true,
          "internalType": "uint256",
          "name": "tokenId",
          "type": "uint256"
        }
      ],
      "name": "Transfer",
      "type": "event"
    },
    {
      "inputs": [
        {
          "internalType": "address",
          "name": "to",
          "type": "address"
        },
        {
          "internalType": "uint256",
          "name": "tokenId",
          "type": "uint256"
        }
      ],
      "name": "approve",
      "outputs": [],
      "stateMutability": "nonpayable",
      "type": "function"
    },
    {
      "inputs": [
        {
          "internalType": "address",
          "name": "owner",
          "type": "address"
        }
      ],
      "name": "balanceOf",
      "outputs": [
        {
          "internalType": "uint256",
          "name": "",
          "type": "uint256"
        }
      ],
      "stateMutability": "view",
      "type": "function"
    },
    {
      "inputs": [
        {
          "internalType": "string",
          "name": "tokenURI",
          "type": "string"
        }
      ],
      "name": "claimItem",
      "outputs": [
        {
          "internalType": "uint256",
          "name": "",
          "type": "uint256"
        }
      ],
      "stateMutability": "payable",
      "type": "function"
    },
    {
      "inputs": [
        {
          "internalType": "uint256",
          "name": "tokenId",
          "type": "uint256"
        }
      ],
      "name": "getApproved",
      "outputs": [
        {
          "internalType": "address",
          "name": "",
          "type": "address"
        }
      ],
      "stateMutability": "view",
      "type": "function"
    },
    {
      "inputs": [
        {
          "internalType": "address",
          "name": "owner",
          "type": "address"
        },
        {
          "internalType": "address",
          "name": "operator",
          "type": "address"
        }
      ],
      "name": "isApprovedForAll",
      "outputs": [
        {
          "internalType": "bool",
          "name": "",
          "type": "bool"
        }
      ],
      "stateMutability": "view",
      "type": "function"
    },
    {
      "inputs": [],
      "name": "mintPrice",
      "outputs": [
        {
          "internalType": "uint256",
          "name": "",
          "type": "uint256"
        }
      ],
      "stateMutability": "view",
      "type": "function"
    },
    {
      "inputs": [],
      "name": "name",
      "outputs": [
        {
          "internalType": "string",
          "name": "",
          "type": "string"
        }
      ],
      "stateMutability": "view",
      "type": "function"
    },
    {
      "inputs": [
        {
          "internalType": "address",
          "name": "",
          "type": "address"
        },
        {
          "internalType": "address",
          "name": "",
          "type": "address"
        },
        {
          "internalType": "uint256",
          "name": "",
          "type": "uint256"
        },
        {
          "internalType": "bytes",
          "name": "",
          "type": "bytes"
        }
      ],
      "name": "onERC721Received",
      "outputs": [
        {
          "internalType": "bytes4",
          "name": "",
          "type": "bytes4"
        }
      ],
      "stateMutability": "nonpayable",
      "type": "function"
    },
    {
      "inputs": [],
      "name": "owner",
      "outputs": [
        {
          "internalType": "address",
          "name": "",
          "type": "address"
        }
      ],
      "stateMutability": "view",
      "type": "function"
    },
    {
      "inputs": [
        {
          "internalType": "uint256",
          "name": "tokenId",
          "type": "uint256"
        }
      ],
      "name": "ownerOf",
      "outputs": [
        {
          "internalType": "address",
          "name": "",
          "type": "address"
        }
      ],
      "stateMutability": "view",
      "type": "function"
    },
    {
      "inputs": [],
      "name": "renounceOwnership",
      "outputs": [],
      "stateMutability": "nonpayable",
      "type": "function"
    },
    {
      "inputs": [
        {
          "internalType": "address",
          "name": "from",
          "type": "address"
        },
        {
          "internalType": "address",
          "name": "to",
          "type": "address"
        },
        {
          "internalType": "uint256",
          "name": "tokenId",
          "type": "uint256"
        }
      ],
      "name": "safeTransferFrom",
      "outputs": [],
      "stateMutability": "nonpayable",
      "type": "function"
    },
    {
      "inputs": [
        {
          "internalType": "address",
          "name": "from",
          "type": "address"
        },
        {
          "internalType": "address",
          "name": "to",
          "type": "address"
        },
        {
          "internalType": "uint256",
          "name": "tokenId",
          "type": "uint256"
        },
        {
          "internalType": "bytes",
          "name": "_data",
          "type": "bytes"
        }
      ],
      "name": "safeTransferFrom",
      "outputs": [],
      "stateMutability": "nonpayable",
      "type": "function"
    },
    {
      "inputs": [
        {
          "internalType": "address",
          "name": "operator",
          "type": "address"
        },
        {
          "internalType": "bool",
          "name": "approved",
          "type": "bool"
        }
      ],
      "name": "setApprovalForAll",
      "outputs": [],
      "stateMutability": "nonpayable",
      "type": "function"
    },
    {
      "inputs": [
        {
          "internalType": "string",
          "name": "baseURI_",
          "type": "string"
        }
      ],
      "name": "setBaseURI",
      "outputs": [],
      "stateMutability": "nonpayable",
      "type": "function"
    },
    {
      "inputs": [
        {
          "internalType": "bytes4",
          "name": "interfaceId",
          "type": "bytes4"
        }
      ],
      "name": "supportsInterface",
      "outputs": [
        {
          "internalType": "bool",
          "name": "",
          "type": "bool"
        }
      ],
      "stateMutability": "view",
      "type": "function"
    },
    {
      "inputs": [],
      "name": "symbol",
      "outputs": [
        {
          "internalType": "string",
          "name": "",
          "type": "string"
        }
      ],
      "stateMutability": "view",
      "type": "function"
    },
    {
      "inputs": [
        {
          "internalType": "uint256",
          "name": "tokenId",
          "type": "uint256"
        }
      ],
      "name": "tokenURI",
      "outputs": [
        {
          "internalType": "string",
          "name": "",
          "type": "string"
        }
      ],
      "stateMutability": "view",
      "type": "function"
    },
    {
      "inputs": [],
      "name": "totalSupply",
      "outputs": [
        {
          "internalType": "uint256",
          "name": "",
          "type": "uint256"
        }
      ],
      "stateMutability": "view",
      "type": "function"
    },
    {
      "inputs": [
        {
          "internalType": "address",
          "name": "from",
          "type": "address"
        },
        {
          "internalType": "address",
          "name": "to",
          "type": "address"
        },
        {
          "internalType": "uint256",
          "name": "tokenId",
          "type": "uint256"
        }
      ],
      "name": "transferFrom",
      "outputs": [],
      "stateMutability": "nonpayable",
      "type": "function"
    },
    {
      "inputs": [
        {
          "internalType": "address",
          "name": "newOwner",
          "type": "address"
        }
      ],
      "name": "transferOwnership",
      "outputs": [],
      "stateMutability": "nonpayable",
      "type": "function"
    }
  ],
  "bytecode": "0x60806040526040518060400160405280600f81526020017f42696f436f6c6c65637469626c657300000000000000000000000000000000008152506040518060400160405280600481526020017f42494f43000000000000000000000000000000000000000000000000000000008152506200009062000084620000d860201b60201c565b620000e060201b60201c565b8160019080519060200190620000a8929190620001a4565b508060029080519060200190620000c1929190620001a4565b505050662386f26fc10000600781905550620002b9565b600033905090565b60008060009054906101000a900473ffffffffffffffffffffffffffffffffffffffff169050816000806101000a81548173ffffffffffffffffffffffffffffffffffffffff021916908373ffffffffffffffffffffffffffffffffffffffff1602179055508173ffffffffffffffffffffffffffffffffffffffff168173ffffffffffffffffffffffffffffffffffffffff167f8be0079c531659141344cd1fd0a4f28419497f9722a3daafe3b4186f6b6457e060405160405180910390a35050565b828054620001b29062000254565b90600052602060002090601f016020900481019282620001d6576000855562000222565b82601f10620001f157805160ff191683800117855562000222565b8280016001018555821562000222579182015b828111156200022157825182559160200191906001019062000204565b5b50905062000231919062000235565b5090565b5b808211156200025057600081600090555060010162000236565b5090565b600060028204905060018216806200026d57607f821691505b602082108114156200028457620002836200028a565b5b50919050565b7f4e487b7100000000000000000000000000000000000000000000000000000000600052602260045260246000fd5b6131c880620002c96000396000f3fe60806040526004361061012a5760003560e01c80636817c76c116100ab578063a22cb4651161006f578063a22cb465146103f2578063a850e8bd1461041b578063b88d4fde1461044b578063c87b56dd14610474578063e985e9c5146104b1578063f2fde38b146104ee5761012a565b80636817c76c1461031d57806370a0823114610348578063715018a6146103855780638da5cb5b1461039c57806395d89b41146103c75761012a565b806318160ddd116100f257806318160ddd1461023a57806323b872dd1461026557806342842e0e1461028e57806355f804b3146102b75780636352211e146102e05761012a565b806301ffc9a71461012f57806306fdde031461016c578063081812fc14610197578063095ea7b3146101d4578063150b7a02146101fd575b600080fd5b34801561013b57600080fd5b506101566004803603810190610151919061219e565b610517565b6040516101639190612617565b60405180910390f35b34801561017857600080fd5b506101816105f9565b60405161018e919061264d565b60405180910390f35b3480156101a357600080fd5b506101be60048036038101906101b99190612231565b61068b565b6040516101cb91906125b0565b60405180910390f35b3480156101e057600080fd5b506101fb60048036038101906101f69190612162565b610710565b005b34801561020957600080fd5b50610224600480360381019061021f91906120ab565b610828565b6040516102319190612632565b60405180910390f35b34801561024657600080fd5b5061024f61083c565b60405161025c919061288f565b60405180910390f35b34801561027157600080fd5b5061028c6004803603810190610287919061205c565b61084d565b005b34801561029a57600080fd5b506102b560048036038101906102b0919061205c565b6108ad565b005b3480156102c357600080fd5b506102de60048036038101906102d991906121f0565b6108cd565b005b3480156102ec57600080fd5b5061030760048036038101906103029190612231565b610963565b60405161031491906125b0565b60405180910390f35b34801561032957600080fd5b50610332610a15565b60405161033f919061288f565b60405180910390f35b34801561035457600080fd5b5061036f600480360381019061036a9190611ff7565b610a1b565b60405161037c919061288f565b60405180910390f35b34801561039157600080fd5b5061039a610ad3565b005b3480156103a857600080fd5b506103b1610b5b565b6040516103be91906125b0565b60405180910390f35b3480156103d357600080fd5b506103dc610b84565b6040516103e9919061264d565b60405180910390f35b3480156103fe57600080fd5b5061041960048036038101906104149190612126565b610c16565b005b610435600480360381019061043091906121f0565b610c2c565b604051610442919061288f565b60405180910390f35b34801561045757600080fd5b50610472600480360381019061046d91906120ab565b610c63565b005b34801561048057600080fd5b5061049b60048036038101906104969190612231565b610cc5565b6040516104a8919061264d565b60405180910390f35b3480156104bd57600080fd5b506104d860048036038101906104d39190612020565b610e38565b6040516104e59190612617565b60405180910390f35b3480156104fa57600080fd5b5061051560048036038101906105109190611ff7565b610ecc565b005b60007f80ac58cd000000000000000000000000000000000000000000000000000000007bffffffffffffffffffffffffffffffffffffffffffffffffffffffff1916827bffffffffffffffffffffffffffffffffffffffffffffffffffffffff191614806105e257507f5b5e139f000000000000000000000000000000000000000000000000000000007bffffffffffffffffffffffffffffffffffffffffffffffffffffffff1916827bffffffffffffffffffffffffffffffffffffffffffffffffffffffff1916145b806105f257506105f182610fc4565b5b9050919050565b60606001805461060890612ae5565b80601f016020809104026020016040519081016040528092919081815260200182805461063490612ae5565b80156106815780601f1061065657610100808354040283529160200191610681565b820191906000526020600020905b81548152906001019060200180831161066457829003601f168201915b5050505050905090565b60006106968261102e565b6106d5576040517f08c379a00000000000000000000000000000000000000000000000000000000081526004016106cc906127cf565b60405180910390fd5b6005600083815260200190815260200160002060009054906101000a900473ffffffffffffffffffffffffffffffffffffffff169050919050565b600061071b82610963565b90508073ffffffffffffffffffffffffffffffffffffffff168373ffffffffffffffffffffffffffffffffffffffff16141561078c576040517f08c379a00000000000000000000000000000000000000000000000000000000081526004016107839061284f565b60405180910390fd5b8073ffffffffffffffffffffffffffffffffffffffff166107ab61109a565b73ffffffffffffffffffffffffffffffffffffffff1614806107da57506107d9816107d461109a565b610e38565b5b610819576040517f08c379a00000000000000000000000000000000000000000000000000000000081526004016108109061274f565b60405180910390fd5b61082383836110a2565b505050565b600063150b7a0260e01b9050949350505050565b6000610848600861115b565b905090565b61085e61085861109a565b82611169565b61089d576040517f08c379a00000000000000000000000000000000000000000000000000000000081526004016108949061286f565b60405180910390fd5b6108a8838383611247565b505050565b6108c883838360405180602001604052806000815250610c63565b505050565b6108d561109a565b73ffffffffffffffffffffffffffffffffffffffff166108f3610b5b565b73ffffffffffffffffffffffffffffffffffffffff1614610949576040517f08c379a00000000000000000000000000000000000000000000000000000000081526004016109409061280f565b60405180910390fd5b80600a908051906020019061095f929190611e1b565b5050565b6000806003600084815260200190815260200160002060009054906101000a900473ffffffffffffffffffffffffffffffffffffffff169050600073ffffffffffffffffffffffffffffffffffffffff168173ffffffffffffffffffffffffffffffffffffffff161415610a0c576040517f08c379a0000000000000000000000000000000000000000000000000000000008152600401610a039061278f565b60405180910390fd5b80915050919050565b60075481565b60008073ffffffffffffffffffffffffffffffffffffffff168273ffffffffffffffffffffffffffffffffffffffff161415610a8c576040517f08c379a0000000000000000000000000000000000000000000000000000000008152600401610a839061276f565b60405180910390fd5b600460008373ffffffffffffffffffffffffffffffffffffffff1673ffffffffffffffffffffffffffffffffffffffff168152602001908152602001600020549050919050565b610adb61109a565b73ffffffffffffffffffffffffffffffffffffffff16610af9610b5b565b73ffffffffffffffffffffffffffffffffffffffff1614610b4f576040517f08c379a0000000000000000000000000000000000000000000000000000000008152600401610b469061280f565b60405180910390fd5b610b5960006114ae565b565b60008060009054906101000a900473ffffffffffffffffffffffffffffffffffffffff16905090565b606060028054610b9390612ae5565b80601f0160208091040260200160405190810160405280929190818152602001828054610bbf90612ae5565b8015610c0c5780601f10610be157610100808354040283529160200191610c0c565b820191906000526020600020905b815481529060010190602001808311610bef57829003601f168201915b5050505050905090565b610c28610c2161109a565b8383611572565b5050565b6000610c3860086116df565b6000610c44600861115b565b9050610c5033826116f5565b610c5a8184611713565b80915050919050565b610c74610c6e61109a565b83611169565b610cb3576040517f08c379a0000000000000000000000000000000000000000000000000000000008152600401610caa9061286f565b60405180910390fd5b610cbf84848484611787565b50505050565b6060610cd08261102e565b610d0f576040517f08c379a0000000000000000000000000000000000000000000000000000000008152600401610d069061282f565b60405180910390fd5b6000600960008481526020019081526020016000208054610d2f90612ae5565b80601f0160208091040260200160405190810160405280929190818152602001828054610d5b90612ae5565b8015610da85780601f10610d7d57610100808354040283529160200191610da8565b820191906000526020600020905b815481529060010190602001808311610d8b57829003601f168201915b505050505090506000610db96117e3565b9050600081511415610dcf578192505050610e33565b600082511115610e04578082604051602001610dec92919061258c565b60405160208183030381529060405292505050610e33565b80610e0e85611875565b604051602001610e1f92919061258c565b604051602081830303815290604052925050505b919050565b6000600660008473ffffffffffffffffffffffffffffffffffffffff1673ffffffffffffffffffffffffffffffffffffffff16815260200190815260200160002060008373ffffffffffffffffffffffffffffffffffffffff1673ffffffffffffffffffffffffffffffffffffffff16815260200190815260200160002060009054906101000a900460ff16905092915050565b610ed461109a565b73ffffffffffffffffffffffffffffffffffffffff16610ef2610b5b565b73ffffffffffffffffffffffffffffffffffffffff1614610f48576040517f08c379a0000000000000000000000000000000000000000000000000000000008152600401610f3f9061280f565b60405180910390fd5b600073ffffffffffffffffffffffffffffffffffffffff168173ffffffffffffffffffffffffffffffffffffffff161415610fb8576040517f08c379a0000000000000000000000000000000000000000000000000000000008152600401610faf9061268f565b60405180910390fd5b610fc1816114ae565b50565b60007f01ffc9a7000000000000000000000000000000000000000000000000000000007bffffffffffffffffffffffffffffffffffffffffffffffffffffffff1916827bffffffffffffffffffffffffffffffffffffffffffffffffffffffff1916149050919050565b60008073ffffffffffffffffffffffffffffffffffffffff166003600084815260200190815260200160002060009054906101000a900473ffffffffffffffffffffffffffffffffffffffff1673ffffffffffffffffffffffffffffffffffffffff1614159050919050565b600033905090565b816005600083815260200190815260200160002060006101000a81548173ffffffffffffffffffffffffffffffffffffffff021916908373ffffffffffffffffffffffffffffffffffffffff160217905550808273ffffffffffffffffffffffffffffffffffffffff1661111583610963565b73ffffffffffffffffffffffffffffffffffffffff167f8c5be1e5ebec7d5bd14f71427d1e84f3dd0314c0f7b2291e5b200ac8c7c3b92560405160405180910390a45050565b600081600001549050919050565b60006111748261102e565b6111b3576040517f08c379a00000000000000000000000000000000000000000000000000000000081526004016111aa9061272f565b60405180910390fd5b60006111be83610963565b90508073ffffffffffffffffffffffffffffffffffffffff168473ffffffffffffffffffffffffffffffffffffffff16148061122d57508373ffffffffffffffffffffffffffffffffffffffff166112158461068b565b73ffffffffffffffffffffffffffffffffffffffff16145b8061123e575061123d8185610e38565b5b91505092915050565b8273ffffffffffffffffffffffffffffffffffffffff1661126782610963565b73ffffffffffffffffffffffffffffffffffffffff16146112bd576040517f08c379a00000000000000000000000000000000000000000000000000000000081526004016112b4906126af565b60405180910390fd5b600073ffffffffffffffffffffffffffffffffffffffff168273ffffffffffffffffffffffffffffffffffffffff16141561132d576040517f08c379a0000000000000000000000000000000000000000000000000000000008152600401611324906126ef565b60405180910390fd5b611338838383611a22565b6113436000826110a2565b6001600460008573ffffffffffffffffffffffffffffffffffffffff1673ffffffffffffffffffffffffffffffffffffffff168152602001908152602001600020600082825461139391906129fb565b925050819055506001600460008473ffffffffffffffffffffffffffffffffffffffff1673ffffffffffffffffffffffffffffffffffffffff16815260200190815260200160002060008282546113ea9190612974565b92505081905550816003600083815260200190815260200160002060006101000a81548173ffffffffffffffffffffffffffffffffffffffff021916908373ffffffffffffffffffffffffffffffffffffffff160217905550808273ffffffffffffffffffffffffffffffffffffffff168473ffffffffffffffffffffffffffffffffffffffff167fddf252ad1be2c89b69c2b068fc378daa952ba7f163c4a11628f55a4df523b3ef60405160405180910390a46114a9838383611a27565b505050565b60008060009054906101000a900473ffffffffffffffffffffffffffffffffffffffff169050816000806101000a81548173ffffffffffffffffffffffffffffffffffffffff021916908373ffffffffffffffffffffffffffffffffffffffff1602179055508173ffffffffffffffffffffffffffffffffffffffff168173ffffffffffffffffffffffffffffffffffffffff167f8be0079c531659141344cd1fd0a4f28419497f9722a3daafe3b4186f6b6457e060405160405180910390a35050565b8173ffffffffffffffffffffffffffffffffffffffff168373ffffffffffffffffffffffffffffffffffffffff1614156115e1576040517f08c379a00000000000000000000000000000000000000000000000000000000081526004016115d89061270f565b60405180910390fd5b80600660008573ffffffffffffffffffffffffffffffffffffffff1673ffffffffffffffffffffffffffffffffffffffff16815260200190815260200160002060008473ffffffffffffffffffffffffffffffffffffffff1673ffffffffffffffffffffffffffffffffffffffff16815260200190815260200160002060006101000a81548160ff0219169083151502179055508173ffffffffffffffffffffffffffffffffffffffff168373ffffffffffffffffffffffffffffffffffffffff167f17307eab39ab6107e8899845ad3d59bd9653f200f220920489ca2b5937696c31836040516116d29190612617565b60405180910390a3505050565b6001816000016000828254019250508190555050565b61170f828260405180602001604052806000815250611a2c565b5050565b61171c8261102e565b61175b576040517f08c379a0000000000000000000000000000000000000000000000000000000008152600401611752906127ef565b60405180910390fd5b80600960008481526020019081526020016000209080519060200190611782929190611e1b565b505050565b611792848484611247565b61179e84848484611a87565b6117dd576040517f08c379a00000000000000000000000000000000000000000000000000000000081526004016117d49061266f565b60405180910390fd5b50505050565b6060600a80546117f290612ae5565b80601f016020809104026020016040519081016040528092919081815260200182805461181e90612ae5565b801561186b5780601f106118405761010080835404028352916020019161186b565b820191906000526020600020905b81548152906001019060200180831161184e57829003601f168201915b5050505050905090565b606060008214156118bd576040518060400160405280600181526020017f30000000000000000000000000000000000000000000000000000000000000008152509050611a1d565b600082905060005b600082146118ef5780806118d890612b48565b915050600a826118e891906129ca565b91506118c5565b60008167ffffffffffffffff811115611931577f4e487b7100000000000000000000000000000000000000000000000000000000600052604160045260246000fd5b6040519080825280601f01601f1916602001820160405280156119635781602001600182028036833780820191505090505b5090505b60008514611a165760018261197c91906129fb565b9150600a8561198b9190612b91565b60306119979190612974565b60f81b8183815181106119d3577f4e487b7100000000000000000000000000000000000000000000000000000000600052603260045260246000fd5b60200101907effffffffffffffffffffffffffffffffffffffffffffffffffffffffffffff1916908160001a905350600a85611a0f91906129ca565b9450611967565b8093505050505b919050565b505050565b505050565b611a368383611c1e565b611a436000848484611a87565b611a82576040517f08c379a0000000000000000000000000000000000000000000000000000000008152600401611a799061266f565b60405180910390fd5b505050565b6000611aa88473ffffffffffffffffffffffffffffffffffffffff16611df8565b15611c11578373ffffffffffffffffffffffffffffffffffffffff1663150b7a02611ad161109a565b8786866040518563ffffffff1660e01b8152600401611af394939291906125cb565b602060405180830381600087803b158015611b0d57600080fd5b505af1925050508015611b3e57506040513d601f19601f82011682018060405250810190611b3b91906121c7565b60015b611bc1573d8060008114611b6e576040519150601f19603f3d011682016040523d82523d6000602084013e611b73565b606091505b50600081511415611bb9576040517f08c379a0000000000000000000000000000000000000000000000000000000008152600401611bb09061266f565b60405180910390fd5b805181602001fd5b63150b7a0260e01b7bffffffffffffffffffffffffffffffffffffffffffffffffffffffff1916817bffffffffffffffffffffffffffffffffffffffffffffffffffffffff191614915050611c16565b600190505b949350505050565b600073ffffffffffffffffffffffffffffffffffffffff168273ffffffffffffffffffffffffffffffffffffffff161415611c8e576040517f08c379a0000000000000000000000000000000000000000000000000000000008152600401611c85906127af565b60405180910390fd5b611c978161102e565b15611cd7576040517f08c379a0000000000000000000000000000000000000000000000000000000008152600401611cce906126cf565b60405180910390fd5b611ce360008383611a22565b6001600460008473ffffffffffffffffffffffffffffffffffffffff1673ffffffffffffffffffffffffffffffffffffffff1681526020019081526020016000206000828254611d339190612974565b92505081905550816003600083815260200190815260200160002060006101000a81548173ffffffffffffffffffffffffffffffffffffffff021916908373ffffffffffffffffffffffffffffffffffffffff160217905550808273ffffffffffffffffffffffffffffffffffffffff16600073ffffffffffffffffffffffffffffffffffffffff167fddf252ad1be2c89b69c2b068fc378daa952ba7f163c4a11628f55a4df523b3ef60405160405180910390a4611df460008383611a27565b5050565b6000808273ffffffffffffffffffffffffffffffffffffffff163b119050919050565b828054611e2790612ae5565b90600052602060002090601f016020900481019282611e495760008555611e90565b82601f10611e6257805160ff1916838001178555611e90565b82800160010185558215611e90579182015b82811115611e8f578251825591602001919060010190611e74565b5b509050611e9d9190611ea1565b5090565b5b80821115611eba576000816000905550600101611ea2565b5090565b6000611ed1611ecc846128cf565b6128aa565b905082815260208101848484011115611ee957600080fd5b611ef4848285612aa3565b509392505050565b6000611f0f611f0a84612900565b6128aa565b905082815260208101848484011115611f2757600080fd5b611f32848285612aa3565b509392505050565b600081359050611f4981613136565b92915050565b600081359050611f5e8161314d565b92915050565b600081359050611f7381613164565b92915050565b600081519050611f8881613164565b92915050565b600082601f830112611f9f57600080fd5b8135611faf848260208601611ebe565b91505092915050565b600082601f830112611fc957600080fd5b8135611fd9848260208601611efc565b91505092915050565b600081359050611ff18161317b565b92915050565b60006020828403121561200957600080fd5b600061201784828501611f3a565b91505092915050565b6000806040838503121561203357600080fd5b600061204185828601611f3a565b925050602061205285828601611f3a565b9150509250929050565b60008060006060848603121561207157600080fd5b600061207f86828701611f3a565b935050602061209086828701611f3a565b92505060406120a186828701611fe2565b9150509250925092565b600080600080608085870312156120c157600080fd5b60006120cf87828801611f3a565b94505060206120e087828801611f3a565b93505060406120f187828801611fe2565b925050606085013567ffffffffffffffff81111561210e57600080fd5b61211a87828801611f8e565b91505092959194509250565b6000806040838503121561213957600080fd5b600061214785828601611f3a565b925050602061215885828601611f4f565b9150509250929050565b6000806040838503121561217557600080fd5b600061218385828601611f3a565b925050602061219485828601611fe2565b9150509250929050565b6000602082840312156121b057600080fd5b60006121be84828501611f64565b91505092915050565b6000602082840312156121d957600080fd5b60006121e784828501611f79565b91505092915050565b60006020828403121561220257600080fd5b600082013567ffffffffffffffff81111561221c57600080fd5b61222884828501611fb8565b91505092915050565b60006020828403121561224357600080fd5b600061225184828501611fe2565b91505092915050565b61226381612a2f565b82525050565b61227281612a41565b82525050565b61228181612a4d565b82525050565b600061229282612931565b61229c8185612947565b93506122ac818560208601612ab2565b6122b581612c7e565b840191505092915050565b60006122cb8261293c565b6122d58185612958565b93506122e5818560208601612ab2565b6122ee81612c7e565b840191505092915050565b60006123048261293c565b61230e8185612969565b935061231e818560208601612ab2565b80840191505092915050565b6000612337603283612958565b915061234282612c8f565b604082019050919050565b600061235a602683612958565b915061236582612cde565b604082019050919050565b600061237d602583612958565b915061238882612d2d565b604082019050919050565b60006123a0601c83612958565b91506123ab82612d7c565b602082019050919050565b60006123c3602483612958565b91506123ce82612da5565b604082019050919050565b60006123e6601983612958565b91506123f182612df4565b602082019050919050565b6000612409602c83612958565b915061241482612e1d565b604082019050919050565b600061242c603883612958565b915061243782612e6c565b604082019050919050565b600061244f602a83612958565b915061245a82612ebb565b604082019050919050565b6000612472602983612958565b915061247d82612f0a565b604082019050919050565b6000612495602083612958565b91506124a082612f59565b602082019050919050565b60006124b8602c83612958565b91506124c382612f82565b604082019050919050565b60006124db602c83612958565b91506124e682612fd1565b604082019050919050565b60006124fe602083612958565b915061250982613020565b602082019050919050565b6000612521602f83612958565b915061252c82613049565b604082019050919050565b6000612544602183612958565b915061254f82613098565b604082019050919050565b6000612567603183612958565b9150612572826130e7565b604082019050919050565b61258681612a99565b82525050565b600061259882856122f9565b91506125a482846122f9565b91508190509392505050565b60006020820190506125c5600083018461225a565b92915050565b60006080820190506125e0600083018761225a565b6125ed602083018661225a565b6125fa604083018561257d565b818103606083015261260c8184612287565b905095945050505050565b600060208201905061262c6000830184612269565b92915050565b60006020820190506126476000830184612278565b92915050565b6000602082019050818103600083015261266781846122c0565b905092915050565b600060208201905081810360008301526126888161232a565b9050919050565b600060208201905081810360008301526126a88161234d565b9050919050565b600060208201905081810360008301526126c881612370565b9050919050565b600060208201905081810360008301526126e881612393565b9050919050565b60006020820190508181036000830152612708816123b6565b9050919050565b60006020820190508181036000830152612728816123d9565b9050919050565b60006020820190508181036000830152612748816123fc565b9050919050565b600060208201905081810360008301526127688161241f565b9050919050565b6000602082019050818103600083015261278881612442565b9050919050565b600060208201905081810360008301526127a881612465565b9050919050565b600060208201905081810360008301526127c881612488565b9050919050565b600060208201905081810360008301526127e8816124ab565b9050919050565b60006020820190508181036000830152612808816124ce565b9050919050565b60006020820190508181036000830152612828816124f1565b9050919050565b6000602082019050818103600083015261284881612514565b9050919050565b6000602082019050818103600083015261286881612537565b9050919050565b600060208201905081810360008301526128888161255a565b9050919050565b60006020820190506128a4600083018461257d565b92915050565b60006128b46128c5565b90506128c08282612b17565b919050565b6000604051905090565b600067ffffffffffffffff8211156128ea576128e9612c4f565b5b6128f382612c7e565b9050602081019050919050565b600067ffffffffffffffff82111561291b5761291a612c4f565b5b61292482612c7e565b9050602081019050919050565b600081519050919050565b600081519050919050565b600082825260208201905092915050565b600082825260208201905092915050565b600081905092915050565b600061297f82612a99565b915061298a83612a99565b9250827fffffffffffffffffffffffffffffffffffffffffffffffffffffffffffffffff038211156129bf576129be612bc2565b5b828201905092915050565b60006129d582612a99565b91506129e083612a99565b9250826129f0576129ef612bf1565b5b828204905092915050565b6000612a0682612a99565b9150612a1183612a99565b925082821015612a2457612a23612bc2565b5b828203905092915050565b6000612a3a82612a79565b9050919050565b60008115159050919050565b60007fffffffff0000000000000000000000000000000000000000000000000000000082169050919050565b600073ffffffffffffffffffffffffffffffffffffffff82169050919050565b6000819050919050565b82818337600083830152505050565b60005b83811015612ad0578082015181840152602081019050612ab5565b83811115612adf576000848401525b50505050565b60006002820490506001821680612afd57607f821691505b60208210811415612b1157612b10612c20565b5b50919050565b612b2082612c7e565b810181811067ffffffffffffffff82111715612b3f57612b3e612c4f565b5b80604052505050565b6000612b5382612a99565b91507fffffffffffffffffffffffffffffffffffffffffffffffffffffffffffffffff821415612b8657612b85612bc2565b5b600182019050919050565b6000612b9c82612a99565b9150612ba783612a99565b925082612bb757612bb6612bf1565b5b828206905092915050565b7f4e487b7100000000000000000000000000000000000000000000000000000000600052601160045260246000fd5b7f4e487b7100000000000000000000000000000000000000000000000000000000600052601260045260246000fd5b7f4e487b7100000000000000000000000000000000000000000000000000000000600052602260045260246000fd5b7f4e487b7100000000000000000000000000000000000000000000000000000000600052604160045260246000fd5b6000601f19601f8301169050919050565b7f4552433732313a207472616e7366657220746f206e6f6e20455243373231526560008201527f63656976657220696d706c656d656e7465720000000000000000000000000000602082015250565b7f4f776e61626c653a206e6577206f776e657220697320746865207a65726f206160008201527f6464726573730000000000000000000000000000000000000000000000000000602082015250565b7f4552433732313a207472616e736665722066726f6d20696e636f72726563742060008201527f6f776e6572000000000000000000000000000000000000000000000000000000602082015250565b7f4552433732313a20746f6b656e20616c7265616479206d696e74656400000000600082015250565b7f4552433732313a207472616e7366657220746f20746865207a65726f2061646460008201527f7265737300000000000000000000000000000000000000000000000000000000602082015250565b7f4552433732313a20617070726f766520746f2063616c6c657200000000000000600082015250565b7f4552433732313a206f70657261746f7220717565727920666f72206e6f6e657860008201527f697374656e7420746f6b656e0000000000000000000000000000000000000000602082015250565b7f4552433732313a20617070726f76652063616c6c6572206973206e6f74206f7760008201527f6e6572206e6f7220617070726f76656420666f7220616c6c0000000000000000602082015250565b7f4552433732313a2062616c616e636520717565727920666f7220746865207a6560008201527f726f206164647265737300000000000000000000000000000000000000000000602082015250565b7f4552433732313a206f776e657220717565727920666f72206e6f6e657869737460008201527f656e7420746f6b656e0000000000000000000000000000000000000000000000602082015250565b7f4552433732313a206d696e7420746f20746865207a65726f2061646472657373600082015250565b7f4552433732313a20617070726f76656420717565727920666f72206e6f6e657860008201527f697374656e7420746f6b656e0000000000000000000000000000000000000000602082015250565b7f4552433732314d657461646174613a2055524920736574206f66206e6f6e657860008201527f697374656e7420746f6b656e0000000000000000000000000000000000000000602082015250565b7f4f776e61626c653a2063616c6c6572206973206e6f7420746865206f776e6572600082015250565b7f4552433732314d657461646174613a2055524920717565727920666f72206e6f60008201527f6e6578697374656e7420746f6b656e0000000000000000000000000000000000602082015250565b7f4552433732313a20617070726f76616c20746f2063757272656e74206f776e6560008201527f7200000000000000000000000000000000000000000000000000000000000000602082015250565b7f4552433732313a207472616e736665722063616c6c6572206973206e6f74206f60008201527f776e6572206e6f7220617070726f766564000000000000000000000000000000602082015250565b61313f81612a2f565b811461314a57600080fd5b50565b61315681612a41565b811461316157600080fd5b50565b61316d81612a4d565b811461317857600080fd5b50565b61318481612a99565b811461318f57600080fd5b5056fea2646970667358221220e9bf8de3b13b7d82bbded00893c067b5101b4d1d18212442aaeabf6d5e2fa3b164736f6c63430008040033",
  "linkReferences": {},
  "deployedLinkReferences": {}
}