{
  "_format": "hh-sol-artifact-1",
  "contractName": "NFTtrader",
  "sourceName": "contracts/NFTtrader.sol",
  "abi": [
    {
      "inputs": [
        {
          "internalType": "uint256",
          "name": "price",
          "type": "uint256"
        },
        {
          "internalType": "address",
          "name": "contractAddr",
          "type": "address"
        },
        {
          "internalType": "uint256",
          "name": "tokenId",
          "type": "uint256"
        }
      ],
      "name": "addListing",
      "outputs": [],
      "stateMutability": "nonpayable",
      "type": "function"
    },
    {
      "inputs": [
        {
          "internalType": "address",
          "name": "",
          "type": "address"
        }
      ],
      "name": "balances",
      "outputs": [
        {
          "internalType": "uint256",
          "name": "",
          "type": "uint256"
        }
      ],
      "stateMutability": "view",
      "type": "function"
    },
    {
      "inputs": [
        {
          "internalType": "address",
          "name": "",
          "type": "address"
        },
        {
          "internalType": "uint256",
          "name": "",
          "type": "uint256"
        }
      ],
      "name": "listings",
      "outputs": [
        {
          "internalType": "uint256",
          "name": "price",
          "type": "uint256"
        },
        {
          "internalType": "address",
          "name": "seller",
          "type": "address"
        }
      ],
      "stateMutability": "view",
      "type": "function"
    },
    {
      "inputs": [
        {
          "internalType": "address",
          "name": "contractAddr",
          "type": "address"
        },
        {
          "internalType": "uint256",
          "name": "tokenId",
          "type": "uint256"
        },
        {
          "internalType": "uint256",
          "name": "amount",
          "type": "uint256"
        }
      ],
      "name": "purchase",
      "outputs": [],
      "stateMutability": "payable",
      "type": "function"
    },
    {
      "inputs": [
        {
          "internalType": "uint256",
          "name": "amount",
          "type": "uint256"
        },
        {
          "internalType": "address payable",
          "name": "destAddr",
          "type": "address"
        }
      ],
      "name": "withdraw",
      "outputs": [],
      "stateMutability": "nonpayable",
      "type": "function"
    }
  ],
  "bytecode": "0x608060405234801561001057600080fd5b50610c20806100206000396000f3fe6080604052600436106100485760003560e01c806207df301461004d578062f714ce1461008b57806327e235e3146100b457806380abbe57146100f157806398968f151461011a575b600080fd5b34801561005957600080fd5b50610074600480360381019061006f91906106cb565b610136565b60405161008292919061096c565b60405180910390f35b34801561009757600080fd5b506100b260048036038101906100ad919061077f565b610187565b005b3480156100c057600080fd5b506100db60048036038101906100d691906106a2565b6102aa565b6040516100e89190610951565b60405180910390f35b3480156100fd57600080fd5b50610118600480360381019061011391906107bb565b6102c2565b005b610134600480360381019061012f9190610707565b610465565b005b6000602052816000526040600020602052806000526040600020600091509150508060000154908060010160009054906101000a900473ffffffffffffffffffffffffffffffffffffffff16905082565b600160003373ffffffffffffffffffffffffffffffffffffffff1673ffffffffffffffffffffffffffffffffffffffff16815260200190815260200160002054821115610209576040517f08c379a000000000000000000000000000000000000000000000000000000000815260040161020090610911565b60405180910390fd5b81600160003373ffffffffffffffffffffffffffffffffffffffff1673ffffffffffffffffffffffffffffffffffffffff16815260200190815260200160002060008282546102589190610a56565b925050819055508073ffffffffffffffffffffffffffffffffffffffff166108fc839081150290604051600060405180830381858888f193505050501580156102a5573d6000803e3d6000fd5b505050565b60016020528060005260406000206000915090505481565b60008290508073ffffffffffffffffffffffffffffffffffffffff1663e985e9c533306040518363ffffffff1660e01b8152600401610302929190610891565b60206040518083038186803b15801561031a57600080fd5b505afa15801561032e573d6000803e3d6000fd5b505050506040513d601f19601f820116820180604052508101906103529190610756565b610391576040517f08c379a0000000000000000000000000000000000000000000000000000000008152600401610388906108f1565b60405180910390fd5b60405180604001604052808581526020013373ffffffffffffffffffffffffffffffffffffffff168152506000808573ffffffffffffffffffffffffffffffffffffffff1673ffffffffffffffffffffffffffffffffffffffff16815260200190815260200160002060008481526020019081526020016000206000820151816000015560208201518160010160006101000a81548173ffffffffffffffffffffffffffffffffffffffff021916908373ffffffffffffffffffffffffffffffffffffffff16021790555090505050505050565b60008060008573ffffffffffffffffffffffffffffffffffffffff1673ffffffffffffffffffffffffffffffffffffffff1681526020019081526020016000206000848152602001908152602001600020604051806040016040529081600082015481526020016001820160009054906101000a900473ffffffffffffffffffffffffffffffffffffffff1673ffffffffffffffffffffffffffffffffffffffff1673ffffffffffffffffffffffffffffffffffffffff1681525050905081816000015161053391906109fc565b341015610575576040517f08c379a000000000000000000000000000000000000000000000000000000000815260040161056c90610931565b60405180910390fd5b3460016000836020015173ffffffffffffffffffffffffffffffffffffffff1673ffffffffffffffffffffffffffffffffffffffff16815260200190815260200160002060008282546105c891906109a6565b9250508190555060008490508073ffffffffffffffffffffffffffffffffffffffff166323b872dd836020015133876040518463ffffffff1660e01b8152600401610615939291906108ba565b600060405180830381600087803b15801561062f57600080fd5b505af1158015610643573d6000803e3d6000fd5b505050505050505050565b60008135905061065d81610b8e565b92915050565b60008135905061067281610ba5565b92915050565b60008151905061068781610bbc565b92915050565b60008135905061069c81610bd3565b92915050565b6000602082840312156106b457600080fd5b60006106c28482850161064e565b91505092915050565b600080604083850312156106de57600080fd5b60006106ec8582860161064e565b92505060206106fd8582860161068d565b9150509250929050565b60008060006060848603121561071c57600080fd5b600061072a8682870161064e565b935050602061073b8682870161068d565b925050604061074c8682870161068d565b9150509250925092565b60006020828403121561076857600080fd5b600061077684828501610678565b91505092915050565b6000806040838503121561079257600080fd5b60006107a08582860161068d565b92505060206107b185828601610663565b9150509250929050565b6000806000606084860312156107d057600080fd5b60006107de8682870161068d565b93505060206107ef8682870161064e565b92505060406108008682870161068d565b9150509250925092565b61081381610a8a565b82525050565b6000610826601983610995565b915061083182610b13565b602082019050919050565b6000610849601283610995565b915061085482610b3c565b602082019050919050565b600061086c601283610995565b915061087782610b65565b602082019050919050565b61088b81610ada565b82525050565b60006040820190506108a6600083018561080a565b6108b3602083018461080a565b9392505050565b60006060820190506108cf600083018661080a565b6108dc602083018561080a565b6108e96040830184610882565b949350505050565b6000602082019050818103600083015261090a81610819565b9050919050565b6000602082019050818103600083015261092a8161083c565b9050919050565b6000602082019050818103600083015261094a8161085f565b9050919050565b60006020820190506109666000830184610882565b92915050565b60006040820190506109816000830185610882565b61098e602083018461080a565b9392505050565b600082825260208201905092915050565b60006109b182610ada565b91506109bc83610ada565b9250827fffffffffffffffffffffffffffffffffffffffffffffffffffffffffffffffff038211156109f1576109f0610ae4565b5b828201905092915050565b6000610a0782610ada565b9150610a1283610ada565b9250817fffffffffffffffffffffffffffffffffffffffffffffffffffffffffffffffff0483118215151615610a4b57610a4a610ae4565b5b828202905092915050565b6000610a6182610ada565b9150610a6c83610ada565b925082821015610a7f57610a7e610ae4565b5b828203905092915050565b6000610a9582610aba565b9050919050565b6000610aa782610aba565b9050919050565b60008115159050919050565b600073ffffffffffffffffffffffffffffffffffffffff82169050919050565b6000819050919050565b7f4e487b7100000000000000000000000000000000000000000000000000000000600052601160045260246000fd5b7f636f6e7472616374206d75737420626520617070726f76656400000000000000600082015250565b7f496e73756666696369656e742066756e64730000000000000000000000000000600082015250565b7f696e73756666696369656e742066756e64730000000000000000000000000000600082015250565b610b9781610a8a565b8114610ba257600080fd5b50565b610bae81610a9c565b8114610bb957600080fd5b50565b610bc581610aae565b8114610bd057600080fd5b50565b610bdc81610ada565b8114610be757600080fd5b5056fea2646970667358221220248dac3e6ec08839a8255de6f92a700ea4bd4bcac6a5ba7a2902d749923d708164736f6c63430008040033",
  "linkReferences": {},
  "deployedLinkReferences": {}
}