{
  "_format": "hh-sol-artifact-1",
  "contractName": "NFTtrader",
  "sourceName": "contracts/NFTtrader.sol",
  "abi": [
    {
      "inputs": [
        {
          "internalType": "uint256",
          "name": "price",
          "type": "uint256"
        },
        {
          "internalType": "address",
          "name": "contractAddr",
          "type": "address"
        },
        {
          "internalType": "uint256",
          "name": "tokenId",
          "type": "uint256"
        }
      ],
      "name": "addListing",
      "outputs": [],
      "stateMutability": "nonpayable",
      "type": "function"
    },
    {
      "inputs": [
        {
          "internalType": "address",
          "name": "",
          "type": "address"
        }
      ],
      "name": "balances",
      "outputs": [
        {
          "internalType": "uint256",
          "name": "",
          "type": "uint256"
        }
      ],
      "stateMutability": "view",
      "type": "function"
    },
    {
      "inputs": [
        {
          "internalType": "address",
          "name": "",
          "type": "address"
        },
        {
          "internalType": "uint256",
          "name": "",
          "type": "uint256"
        }
      ],
      "name": "listings",
      "outputs": [
        {
          "internalType": "uint256",
          "name": "price",
          "type": "uint256"
        },
        {
          "internalType": "address",
          "name": "seller",
          "type": "address"
        }
      ],
      "stateMutability": "view",
      "type": "function"
    },
    {
      "inputs": [
        {
          "internalType": "address",
          "name": "contractAddr",
          "type": "address"
        },
        {
          "internalType": "address",
          "name": "coinAddr",
          "type": "address"
        },
        {
          "internalType": "uint256",
          "name": "tokenId",
          "type": "uint256"
        },
        {
          "internalType": "uint256",
          "name": "amount",
          "type": "uint256"
        }
      ],
      "name": "purchase",
      "outputs": [],
      "stateMutability": "payable",
      "type": "function"
    },
    {
      "inputs": [
        {
          "internalType": "uint256",
          "name": "amount",
          "type": "uint256"
        },
        {
          "internalType": "address payable",
          "name": "destAddr",
          "type": "address"
        }
      ],
      "name": "withdraw",
      "outputs": [],
      "stateMutability": "nonpayable",
      "type": "function"
    }
  ],
  "bytecode": "0x608060405234801561001057600080fd5b50610bf8806100206000396000f3fe6080604052600436106100485760003560e01c806207df301461004d578062f714ce1461008b57806327e235e3146100b45780634aaf5884146100f157806380abbe571461010d575b600080fd5b34801561005957600080fd5b50610074600480360381019061006f9190610761565b610136565b604051610082929190610947565b60405180910390f35b34801561009757600080fd5b506100b260048036038101906100ad91906107c6565b610187565b005b3480156100c057600080fd5b506100db60048036038101906100d691906106d5565b6102aa565b6040516100e8919061092c565b60405180910390f35b61010b600480360381019061010691906106fe565b6102c2565b005b34801561011957600080fd5b50610134600480360381019061012f9190610802565b610539565b005b6000602052816000526040600020602052806000526040600020600091509150508060000154908060010160009054906101000a900473ffffffffffffffffffffffffffffffffffffffff16905082565b600160003373ffffffffffffffffffffffffffffffffffffffff1673ffffffffffffffffffffffffffffffffffffffff16815260200190815260200160002054821115610209576040517f08c379a0000000000000000000000000000000000000000000000000000000008152600401610200906108ec565b60405180910390fd5b81600160003373ffffffffffffffffffffffffffffffffffffffff1673ffffffffffffffffffffffffffffffffffffffff16815260200190815260200160002060008282546102589190610a31565b925050819055508073ffffffffffffffffffffffffffffffffffffffff166108fc839081150290604051600060405180830381858888f193505050501580156102a5573d6000803e3d6000fd5b505050565b60016020528060005260406000206000915090505481565b60008060008673ffffffffffffffffffffffffffffffffffffffff1673ffffffffffffffffffffffffffffffffffffffff1681526020019081526020016000206000848152602001908152602001600020604051806040016040529081600082015481526020016001820160009054906101000a900473ffffffffffffffffffffffffffffffffffffffff1673ffffffffffffffffffffffffffffffffffffffff1673ffffffffffffffffffffffffffffffffffffffff1681525050905060008490508073ffffffffffffffffffffffffffffffffffffffff166323b872dd33308686600001516103b391906109d7565b6040518463ffffffff1660e01b81526004016103d1939291906108b5565b602060405180830381600087803b1580156103eb57600080fd5b505af11580156103ff573d6000803e3d6000fd5b505050506040513d601f19601f82011682018060405250810190610423919061079d565b610462576040517f08c379a00000000000000000000000000000000000000000000000000000000081526004016104599061090c565b60405180910390fd5b3460016000846020015173ffffffffffffffffffffffffffffffffffffffff1673ffffffffffffffffffffffffffffffffffffffff16815260200190815260200160002060008282546104b59190610981565b9250508190555060008690508073ffffffffffffffffffffffffffffffffffffffff166323b872dd3033886040518463ffffffff1660e01b81526004016104fe939291906108b5565b600060405180830381600087803b15801561051857600080fd5b505af115801561052c573d6000803e3d6000fd5b5050505050505050505050565b60405180604001604052808481526020013373ffffffffffffffffffffffffffffffffffffffff168152506000808473ffffffffffffffffffffffffffffffffffffffff1673ffffffffffffffffffffffffffffffffffffffff16815260200190815260200160002060008381526020019081526020016000206000820151816000015560208201518160010160006101000a81548173ffffffffffffffffffffffffffffffffffffffff021916908373ffffffffffffffffffffffffffffffffffffffff16021790555090505060008290508073ffffffffffffffffffffffffffffffffffffffff166323b872dd3330856040518463ffffffff1660e01b8152600401610649939291906108b5565b600060405180830381600087803b15801561066357600080fd5b505af1158015610677573d6000803e3d6000fd5b5050505050505050565b60008135905061069081610b66565b92915050565b6000813590506106a581610b7d565b92915050565b6000815190506106ba81610b94565b92915050565b6000813590506106cf81610bab565b92915050565b6000602082840312156106e757600080fd5b60006106f584828501610681565b91505092915050565b6000806000806080858703121561071457600080fd5b600061072287828801610681565b945050602061073387828801610681565b9350506040610744878288016106c0565b9250506060610755878288016106c0565b91505092959194509250565b6000806040838503121561077457600080fd5b600061078285828601610681565b9250506020610793858286016106c0565b9150509250929050565b6000602082840312156107af57600080fd5b60006107bd848285016106ab565b91505092915050565b600080604083850312156107d957600080fd5b60006107e7858286016106c0565b92505060206107f885828601610696565b9150509250929050565b60008060006060848603121561081757600080fd5b6000610825868287016106c0565b935050602061083686828701610681565b9250506040610847868287016106c0565b9150509250925092565b61085a81610a65565b82525050565b600061086d601283610970565b915061087882610aee565b602082019050919050565b6000610890602d83610970565b915061089b82610b17565b604082019050919050565b6108af81610ab5565b82525050565b60006060820190506108ca6000830186610851565b6108d76020830185610851565b6108e460408301846108a6565b949350505050565b6000602082019050818103600083015261090581610860565b9050919050565b6000602082019050818103600083015261092581610883565b9050919050565b600060208201905061094160008301846108a6565b92915050565b600060408201905061095c60008301856108a6565b6109696020830184610851565b9392505050565b600082825260208201905092915050565b600061098c82610ab5565b915061099783610ab5565b9250827fffffffffffffffffffffffffffffffffffffffffffffffffffffffffffffffff038211156109cc576109cb610abf565b5b828201905092915050565b60006109e282610ab5565b91506109ed83610ab5565b9250817fffffffffffffffffffffffffffffffffffffffffffffffffffffffffffffffff0483118215151615610a2657610a25610abf565b5b828202905092915050565b6000610a3c82610ab5565b9150610a4783610ab5565b925082821015610a5a57610a59610abf565b5b828203905092915050565b6000610a7082610a95565b9050919050565b6000610a8282610a95565b9050919050565b60008115159050919050565b600073ffffffffffffffffffffffffffffffffffffffff82169050919050565b6000819050919050565b7f4e487b7100000000000000000000000000000000000000000000000000000000600052601160045260246000fd5b7f496e73756666696369656e742066756e64730000000000000000000000000000600082015250565b7f5472616e73666572206f662066756e647320746f20747261646572206164647260008201527f20756e7375636365737366756c00000000000000000000000000000000000000602082015250565b610b6f81610a65565b8114610b7a57600080fd5b50565b610b8681610a77565b8114610b9157600080fd5b50565b610b9d81610a89565b8114610ba857600080fd5b50565b610bb481610ab5565b8114610bbf57600080fd5b5056fea2646970667358221220be119bb3f761c2fd14db2dd8e4542994eab1f3a69bc8ad8492370a653206e71664736f6c63430008040033",
  "linkReferences": {},
  "deployedLinkReferences": {}
}