{
  "_format": "hh-sol-artifact-1",
  "contractName": "NFTtrader",
  "sourceName": "contracts/NFTtrader.sol",
  "abi": [
    {
      "inputs": [
        {
          "internalType": "uint256",
          "name": "price",
          "type": "uint256"
        },
        {
          "internalType": "address",
          "name": "contractAddr",
          "type": "address"
        },
        {
          "internalType": "uint256",
          "name": "tokenId",
          "type": "uint256"
        }
      ],
      "name": "addListing",
      "outputs": [],
      "stateMutability": "nonpayable",
      "type": "function"
    },
    {
      "inputs": [
        {
          "internalType": "address",
          "name": "",
          "type": "address"
        }
      ],
      "name": "balances",
      "outputs": [
        {
          "internalType": "uint256",
          "name": "",
          "type": "uint256"
        }
      ],
      "stateMutability": "view",
      "type": "function"
    },
    {
      "inputs": [
        {
          "internalType": "address",
          "name": "",
          "type": "address"
        },
        {
          "internalType": "uint256",
          "name": "",
          "type": "uint256"
        }
      ],
      "name": "listings",
      "outputs": [
        {
          "internalType": "uint256",
          "name": "price",
          "type": "uint256"
        },
        {
          "internalType": "address",
          "name": "seller",
          "type": "address"
        }
      ],
      "stateMutability": "view",
      "type": "function"
    },
    {
      "inputs": [
        {
          "internalType": "address",
          "name": "contractAddr",
          "type": "address"
        },
        {
          "internalType": "address",
          "name": "coinAddr",
          "type": "address"
        },
        {
          "internalType": "uint256",
          "name": "tokenId",
          "type": "uint256"
        },
        {
          "internalType": "uint256",
          "name": "amount",
          "type": "uint256"
        }
      ],
      "name": "purchase",
      "outputs": [],
      "stateMutability": "nonpayable",
      "type": "function"
    }
  ],
  "bytecode": "0x608060405234801561001057600080fd5b50610988806100206000396000f3fe608060405234801561001057600080fd5b506004361061004b5760003560e01c806207df301461005057806327e235e3146100815780634aaf5884146100b157806380abbe57146100cd575b600080fd5b61006a60048036038101906100659190610623565b6100e9565b6040516100789291906107b3565b60405180910390f35b61009b60048036038101906100969190610597565b61013a565b6040516100a89190610798565b60405180910390f35b6100cb60048036038101906100c691906105c0565b610152565b005b6100e760048036038101906100e29190610688565b610410565b005b6000602052816000526040600020602052806000526040600020600091509150508060000154908060010160009054906101000a900473ffffffffffffffffffffffffffffffffffffffff16905082565b60016020528060005260406000206000915090505481565b60008060008673ffffffffffffffffffffffffffffffffffffffff1673ffffffffffffffffffffffffffffffffffffffff1681526020019081526020016000206000848152602001908152602001600020604051806040016040529081600082015481526020016001820160009054906101000a900473ffffffffffffffffffffffffffffffffffffffff1673ffffffffffffffffffffffffffffffffffffffff1673ffffffffffffffffffffffffffffffffffffffff1681525050905060008490508073ffffffffffffffffffffffffffffffffffffffff1663095ea7b33085856000015161024291906107ed565b6040518363ffffffff1660e01b815260040161025f92919061074f565b602060405180830381600087803b15801561027957600080fd5b505af115801561028d573d6000803e3d6000fd5b505050506040513d601f19601f820116820180604052508101906102b1919061065f565b508073ffffffffffffffffffffffffffffffffffffffff166323b872dd3384602001518686600001516102e491906107ed565b6040518463ffffffff1660e01b815260040161030293929190610718565b602060405180830381600087803b15801561031c57600080fd5b505af1158015610330573d6000803e3d6000fd5b505050506040513d601f19601f82011682018060405250810190610354919061065f565b610393576040517f08c379a000000000000000000000000000000000000000000000000000000000815260040161038a90610778565b60405180910390fd5b60008690508073ffffffffffffffffffffffffffffffffffffffff166323b872dd3033886040518463ffffffff1660e01b81526004016103d593929190610718565b600060405180830381600087803b1580156103ef57600080fd5b505af1158015610403573d6000803e3d6000fd5b5050505050505050505050565b60405180604001604052808481526020013373ffffffffffffffffffffffffffffffffffffffff168152506000808473ffffffffffffffffffffffffffffffffffffffff1673ffffffffffffffffffffffffffffffffffffffff16815260200190815260200160002060008381526020019081526020016000206000820151816000015560208201518160010160006101000a81548173ffffffffffffffffffffffffffffffffffffffff021916908373ffffffffffffffffffffffffffffffffffffffff16021790555090505060008290508073ffffffffffffffffffffffffffffffffffffffff166323b872dd3330856040518463ffffffff1660e01b815260040161052093929190610718565b600060405180830381600087803b15801561053a57600080fd5b505af115801561054e573d6000803e3d6000fd5b5050505050505050565b6000813590506105678161090d565b92915050565b60008151905061057c81610924565b92915050565b6000813590506105918161093b565b92915050565b6000602082840312156105a957600080fd5b60006105b784828501610558565b91505092915050565b600080600080608085870312156105d657600080fd5b60006105e487828801610558565b94505060206105f587828801610558565b935050604061060687828801610582565b925050606061061787828801610582565b91505092959194509250565b6000806040838503121561063657600080fd5b600061064485828601610558565b925050602061065585828601610582565b9150509250929050565b60006020828403121561067157600080fd5b600061067f8482850161056d565b91505092915050565b60008060006060848603121561069d57600080fd5b60006106ab86828701610582565b93505060206106bc86828701610558565b92505060406106cd86828701610582565b9150509250925092565b6106e081610847565b82525050565b60006106f3602d836107dc565b91506106fe826108be565b604082019050919050565b61071281610885565b82525050565b600060608201905061072d60008301866106d7565b61073a60208301856106d7565b6107476040830184610709565b949350505050565b600060408201905061076460008301856106d7565b6107716020830184610709565b9392505050565b60006020820190508181036000830152610791816106e6565b9050919050565b60006020820190506107ad6000830184610709565b92915050565b60006040820190506107c86000830185610709565b6107d560208301846106d7565b9392505050565b600082825260208201905092915050565b60006107f882610885565b915061080383610885565b9250817fffffffffffffffffffffffffffffffffffffffffffffffffffffffffffffffff048311821515161561083c5761083b61088f565b5b828202905092915050565b600061085282610865565b9050919050565b60008115159050919050565b600073ffffffffffffffffffffffffffffffffffffffff82169050919050565b6000819050919050565b7f4e487b7100000000000000000000000000000000000000000000000000000000600052601160045260246000fd5b7f5472616e73666572206f662066756e647320746f20747261646572206164647260008201527f20756e7375636365737366756c00000000000000000000000000000000000000602082015250565b61091681610847565b811461092157600080fd5b50565b61092d81610859565b811461093857600080fd5b50565b61094481610885565b811461094f57600080fd5b5056fea264697066735822122014b0369eba3ada8787d908d4dde4db984ea5a31cb7e852b147c746c340a1670964736f6c63430008040033",
  "linkReferences": {},
  "deployedLinkReferences": {}
}