{
  "_format": "hh-sol-artifact-1",
  "contractName": "NFTtrader",
  "sourceName": "contracts/NFTtrader.sol",
  "abi": [
    {
      "inputs": [
        {
          "internalType": "uint256",
          "name": "price",
          "type": "uint256"
        },
        {
          "internalType": "address",
          "name": "contractAddr",
          "type": "address"
        },
        {
          "internalType": "uint256",
          "name": "tokenId",
          "type": "uint256"
        }
      ],
      "name": "addListing",
      "outputs": [],
      "stateMutability": "nonpayable",
      "type": "function"
    },
    {
      "inputs": [
        {
          "internalType": "address",
          "name": "",
          "type": "address"
        }
      ],
      "name": "balances",
      "outputs": [
        {
          "internalType": "uint256",
          "name": "",
          "type": "uint256"
        }
      ],
      "stateMutability": "view",
      "type": "function"
    },
    {
      "inputs": [
        {
          "internalType": "address",
          "name": "",
          "type": "address"
        },
        {
          "internalType": "uint256",
          "name": "",
          "type": "uint256"
        }
      ],
      "name": "listings",
      "outputs": [
        {
          "internalType": "uint256",
          "name": "price",
          "type": "uint256"
        },
        {
          "internalType": "address",
          "name": "seller",
          "type": "address"
        }
      ],
      "stateMutability": "view",
      "type": "function"
    },
    {
      "inputs": [
        {
          "internalType": "address",
          "name": "contractAddr",
          "type": "address"
        },
        {
          "internalType": "uint256",
          "name": "tokenId",
          "type": "uint256"
        },
        {
          "internalType": "uint256",
          "name": "amount",
          "type": "uint256"
        }
      ],
      "name": "purchase",
      "outputs": [],
      "stateMutability": "payable",
      "type": "function"
    },
    {
      "inputs": [
        {
          "internalType": "uint256",
          "name": "amount",
          "type": "uint256"
        },
        {
          "internalType": "address payable",
          "name": "destAddr",
          "type": "address"
        }
      ],
      "name": "withdraw",
      "outputs": [],
      "stateMutability": "nonpayable",
      "type": "function"
    }
  ],
  "bytecode": "0x608060405234801561001057600080fd5b50610b7d806100206000396000f3fe6080604052600436106100485760003560e01c806207df301461004d578062f714ce1461008b57806327e235e3146100b457806380abbe57146100f157806398968f151461011a575b600080fd5b34801561005957600080fd5b50610074600480360381019061006f91906106c5565b610136565b604051610082929190610909565b60405180910390f35b34801561009757600080fd5b506100b260048036038101906100ad9190610750565b610187565b005b3480156100c057600080fd5b506100db60048036038101906100d6919061069c565b6102aa565b6040516100e891906108ee565b60405180910390f35b3480156100fd57600080fd5b506101186004803603810190610113919061078c565b6102c2565b005b610134600480360381019061012f9190610701565b610478565b005b6000602052816000526040600020602052806000526040600020600091509150508060000154908060010160009054906101000a900473ffffffffffffffffffffffffffffffffffffffff16905082565b600160003373ffffffffffffffffffffffffffffffffffffffff1673ffffffffffffffffffffffffffffffffffffffff16815260200190815260200160002054821115610209576040517f08c379a0000000000000000000000000000000000000000000000000000000008152600401610200906108ae565b60405180910390fd5b81600160003373ffffffffffffffffffffffffffffffffffffffff1673ffffffffffffffffffffffffffffffffffffffff168152602001908152602001600020600082825461025891906109f3565b925050819055508073ffffffffffffffffffffffffffffffffffffffff166108fc839081150290604051600060405180830381858888f193505050501580156102a5573d6000803e3d6000fd5b505050565b60016020528060005260406000206000915090505481565b60405180604001604052808481526020013373ffffffffffffffffffffffffffffffffffffffff168152506000808473ffffffffffffffffffffffffffffffffffffffff1673ffffffffffffffffffffffffffffffffffffffff16815260200190815260200160002060008381526020019081526020016000206000820151816000015560208201518160010160006101000a81548173ffffffffffffffffffffffffffffffffffffffff021916908373ffffffffffffffffffffffffffffffffffffffff16021790555090505060008290508073ffffffffffffffffffffffffffffffffffffffff1663a22cb4653060016040518363ffffffff1660e01b81526004016103d1929190610885565b600060405180830381600087803b1580156103eb57600080fd5b505af11580156103ff573d6000803e3d6000fd5b505050508073ffffffffffffffffffffffffffffffffffffffff166323b872dd3330856040518463ffffffff1660e01b81526004016104409392919061084e565b600060405180830381600087803b15801561045a57600080fd5b505af115801561046e573d6000803e3d6000fd5b5050505050505050565b60008060008573ffffffffffffffffffffffffffffffffffffffff1673ffffffffffffffffffffffffffffffffffffffff1681526020019081526020016000206000848152602001908152602001600020604051806040016040529081600082015481526020016001820160009054906101000a900473ffffffffffffffffffffffffffffffffffffffff1673ffffffffffffffffffffffffffffffffffffffff1673ffffffffffffffffffffffffffffffffffffffff168152505090508181600001516105469190610999565b341015610588576040517f08c379a000000000000000000000000000000000000000000000000000000000815260040161057f906108ce565b60405180910390fd5b3460016000836020015173ffffffffffffffffffffffffffffffffffffffff1673ffffffffffffffffffffffffffffffffffffffff16815260200190815260200160002060008282546105db9190610943565b9250508190555060008490508073ffffffffffffffffffffffffffffffffffffffff166323b872dd3033876040518463ffffffff1660e01b81526004016106249392919061084e565b600060405180830381600087803b15801561063e57600080fd5b505af1158015610652573d6000803e3d6000fd5b505050505050505050565b60008135905061066c81610b02565b92915050565b60008135905061068181610b19565b92915050565b60008135905061069681610b30565b92915050565b6000602082840312156106ae57600080fd5b60006106bc8482850161065d565b91505092915050565b600080604083850312156106d857600080fd5b60006106e68582860161065d565b92505060206106f785828601610687565b9150509250929050565b60008060006060848603121561071657600080fd5b60006107248682870161065d565b935050602061073586828701610687565b925050604061074686828701610687565b9150509250925092565b6000806040838503121561076357600080fd5b600061077185828601610687565b925050602061078285828601610672565b9150509250929050565b6000806000606084860312156107a157600080fd5b60006107af86828701610687565b93505060206107c08682870161065d565b92505060406107d186828701610687565b9150509250925092565b6107e481610a27565b82525050565b6107f381610a4b565b82525050565b6000610806601283610932565b915061081182610ab0565b602082019050919050565b6000610829601283610932565b915061083482610ad9565b602082019050919050565b61084881610a77565b82525050565b600060608201905061086360008301866107db565b61087060208301856107db565b61087d604083018461083f565b949350505050565b600060408201905061089a60008301856107db565b6108a760208301846107ea565b9392505050565b600060208201905081810360008301526108c7816107f9565b9050919050565b600060208201905081810360008301526108e78161081c565b9050919050565b6000602082019050610903600083018461083f565b92915050565b600060408201905061091e600083018561083f565b61092b60208301846107db565b9392505050565b600082825260208201905092915050565b600061094e82610a77565b915061095983610a77565b9250827fffffffffffffffffffffffffffffffffffffffffffffffffffffffffffffffff0382111561098e5761098d610a81565b5b828201905092915050565b60006109a482610a77565b91506109af83610a77565b9250817fffffffffffffffffffffffffffffffffffffffffffffffffffffffffffffffff04831182151516156109e8576109e7610a81565b5b828202905092915050565b60006109fe82610a77565b9150610a0983610a77565b925082821015610a1c57610a1b610a81565b5b828203905092915050565b6000610a3282610a57565b9050919050565b6000610a4482610a57565b9050919050565b60008115159050919050565b600073ffffffffffffffffffffffffffffffffffffffff82169050919050565b6000819050919050565b7f4e487b7100000000000000000000000000000000000000000000000000000000600052601160045260246000fd5b7f496e73756666696369656e742066756e64730000000000000000000000000000600082015250565b7f696e73756666696369656e742066756e64730000000000000000000000000000600082015250565b610b0b81610a27565b8114610b1657600080fd5b50565b610b2281610a39565b8114610b2d57600080fd5b50565b610b3981610a77565b8114610b4457600080fd5b5056fea264697066735822122023f5ccbd0a6522d689793898b0232bb19a6c446af4d33b3128e7804cdfdd92ff64736f6c63430008040033",
  "linkReferences": {},
  "deployedLinkReferences": {}
}